:100000000C940D1D0C942E1D0C942E1D0C942E1D65
:100010000C942E1D0C942E1D0C942E1D0C942E1D34
:100020000C942E1D0C942E1D0C942E1D0C942E1D24
:100030000C942E1D0C942E1D0C942E1D0C942E1D14
:100040000C942E1D0C942E1D0C942E1D0C942E1D04
:100050000C942E1D0C942E1D0C942E1D0C942E1DF4
:100060000C942E1D0C942E1D0C942E1D0C942E1DE4
:100070000C942E1D0C942E1D0C942E1D0C942E1DD4
:100080000C942E1D0C942E1D0C942E1D0C942E1DC4
:100090000C942E1D0C942E1D0C942E1D0C942E1DB4
:1000A0000C942E1D0C942E1D0C942E1D0C942E1DA4
:1000B0000C942E1D0C942E1D0C942E1D0C942E1D94
:1000C0000C942E1D0C942E1D0C942E1D0C942E1D84
:1000D0000C942E1D0C942E1D0C942E1D0C942E1D74
:1000E0000C942E1D0C942E1D0C942E1D0C942E1D64
:1000F0000C942E1D0C942E1D0C942E1D0C942E1D54
:100100000C942E1D0C942E1D0C942E1D0C942E1D43
:100110000C942E1D0C942E1D0C942E1D0C942E1D33
:100120000C942E1D0C942E1D0C942E1D0C942E1D23
:100130000C942E1D0C942E1D0C942E1D0C942E1D13
:100140000C942E1D0C942E1D0C942E1D0C942E1D03
:100150000C942E1D0C942E1D0C942E1D0C942E1DF3
:100160000C942E1D0C942E1D0C942E1D0C942E1DE3
:100170000C942E1D0C942E1D0C942E1D0C942E1DD3
:100180000C942E1D0C942E1D0C942E1D0C942E1DC3
:100190000C942E1D0C942E1D0C942E1D0C942E1DB3
:1001A0000C942E1D0C942E1D0C942E1D0C942E1DA3
:1001B0000C942E1D0C942E1D0C942E1D0C942E1D93
:1001C0000C942E1D0C942E1D0C942E1D0C942E1D83
:1001D0000C942E1D0C942E1D0C942E1D0C942E1D73
:1001E0000C942E1D0C942E1D0C942E1D0C942E1D63
:1001F0000C942E1D0C942E1D0C942E1D0C949623E5
:100200000C9496270C944523000000000000000089
:1002100000000000000000000000000000000000DE
:100220000000F0030C0C02103211312201223122A5
:10023000321102100C0CF0030000F003FC0FFE1F43
:10024000CE1ECF3DFF3DCF3DCE1EFE1FFC0FF00367
:1002500000000000F000F801F803F007E00FF007DD
:10026000F803F801F0000000000000008000C00169
:10027000E003F007F80FF007E003C0018000000082
:1002800000008003C007C007B813FC1BFC1FFC1B49
:10029000B813C007C0078003000000008003C00738
:1002A000E017F01BFC1FF01BE017C00780030000E5
:1002B000000000000000000000000000000000003E
:1002C000000000000000000000000000000000002E
:1002D000000000000000000000000000000000001E
:1002E000000000000000000000000000000000000E
:1002F00000000000000000000000000000000000FE
:1003000000000000000000000000000000000000ED
:1003100000008003C007600C20082008600CC8079C
:10032000A803180078000000000000000000700022
:10033000F8088C09043F043F8C09F808700000009D
:1003400000000000000000000000000000000000AD
:10035000000000000000000000000006000F000F79
:10036000FF0733006630CC789879F03F000000003A
:1003700000008000C809F0073006180C1E3C180C5D
:100380003006F007C8098000000000000000FC1FD4
:10039000F80FF007E003C00180000000000000003B
:1003A0000000000000008000C001E003F007F80F2B
:1003B000FC1F00000000000000000000000010040E
:1003C000180C1C1CFE3F1C1C180C10040000000024
:1003D000000000000000FE37FE3700000000FE377E
:1003E000FE37000000000000000038007C00C6005E
:1003F0008200FE3FFE3F0200FE3FFE3F0200000083
:1004000000000000DC08FE19221122112211221125
:10041000E61FC40E000000000000000000000038CD
:100420000038003800380038003800380038000044
:1004300000000000000008440C4C0E5CFF7F0E5CC6
:100440000C4C0844000000000000000000001000F8
:1004500018001C00FE3F1C001800100000000000E7
:100460000000000000000004000C001CFE3F001C07
:10047000000C00040000000000000000800080006C
:10048000800080008000F007E003C00180000000D1
:10049000000000008000C001E003F0078000800041
:1004A00080008000800000000000003F002000204D
:1004B000002000200020002000200020002000005C
:1004C00000008000C001E003F00780008000800091
:1004D000F007E003C00180000000000400060007F0
:1004E0008007C007E007C007800700070006000478
:1004F000000020006000E000E001E003E007E0030E
:10050000E001E000600020000000000000000000AA
:1005100000000000000000000000000000000000DB
:1005200000000000000000007C00FF33FF337C006F
:1005300000000000000000000000000000003C007F
:100540003C00000000003C003C00000000000000F7
:1005500000000002101E901FF0037E021E1E901F5E
:10056000F0037E021E001000000000007804FC0C66
:10057000CC0CFF3FFF3FCC0CCC0F880700000000E5
:10058000000000303838381C380E00078003C001E6
:10059000E038703838381C0000000000001FB83FF9
:1005A000FC31C621E2373E1E1C1C00360022000032
:1005B000000000000000000027003F001F000000B6
:1005C0000000000000000000000000000000F00338
:1005D000FC0FFE1F07380120012000000000000072
:1005E000000000000000012001200738FE1FFC0F62
:1005F000F00300000000000000000000980CB80E9E
:10060000E003F80FF80FE003B80E980C00000000AC
:1006100000000000800180018001F00FF00F8001D8
:1006200080018001000000000000000000000000C8
:1006300000B800F800780000000000000000000092
:1006400000000000800180018001800180018001A4
:100650008001800100000000000000000000000098
:1006600000380038003800000000000000000000E2
:1006700000000018001C000E00078003C001E0000D
:10068000700038001C000E000000F807FE1F061E58
:1006900003338331C330633033301E18FE1FF80735
:1006A0000000000000000C300C300E30FF3FFF3F18
:1006B000003000300030000000001C301E38073CC5
:1006C000033E03378333C331E33077303E301C3091
:1006D00000000C0C0E1C0738C330C330C330C330CD
:1006E000C330E7397E1F3C0E0000C003E0037003F7
:1006F00038031C030E030703FF3FFF3F0003000303
:1007000000003F0C7F1C633863306330633063301C
:100710006330E338C31F830F0000C00FF01FF839A8
:10072000DC30CE30C730C330C330C339801F000F38
:1007300000000300030003000330033C030FC30366
:10074000F3003F000F0003000000000FBC1FFE3944
:10075000E730C330C330C330E730FE39BC1F000F71
:1007600000003C007E00E730C330C330C338C31CF8
:10077000C30EE707FE03FC000000000000000000BD
:10078000701C701C701C00000000000000000000C5
:100790000000000000000000709C70FC707C0000F5
:1007A000000000000000000000000000C000E001A8
:1007B000F00338071C0E0E1C073803300000000041
:1007C00000000000600660066006600660066006C5
:1007D0006006600660060000000000000330073875
:1007E0000E1C1C0E3807F003E001C00000000000E2
:1007F00000001C001E00070003008337C337E3001E
:1008000077003E001C0000000000F80FFE1F0718D4
:10081000F333FB371B36FB37FB370736FE03F80194
:1008200000000038003FE007FC061F061F06FC061C
:10083000E007003F003800000000FF3FFF3FC330EB
:10084000C330C330C330E730FE39BC1F000F000097
:100850000000F003FC0F0E1C073803300330033098
:1008600007380E1C0C0C00000000FF3FFF3F033058
:1008700003300330033007380E1CFC0FF003000078
:100880000000FF3FFF3FC330C330C330C330C3302D
:10089000C3300330033000000000FF3FFF3FC300C0
:1008A000C300C300C300C300C30003000300000073
:1008B0000000F003FC0F0E1C07380330C330C330B8
:1008C000C330C73FC63F00000000FF3FFF3FC000EE
:1008D000C000C000C000C000C000FF3FFF3F0000DC
:1008E00000000000000003300330FF3FFF3F0330F3
:1008F00003300000000000000000000E001E003861
:1009000000300030003000300038FF1FFF070000CB
:100910000000FF3FFF3FC000E001F00338071C0E5E
:100920000E1C0738033000000000FF3FFF3F00307F
:100930000030003000300030003000300030000067
:100940000000FF3FFF3F1E007800E001E00178005B
:100950001E00FF3FFF3F00000000FF3FFF3F0E0073
:100960003800F000C0030007001CFF3FFF3F0000FD
:100970000000F003FC0F0E1C07380330033007386B
:100980000E1CFC0FF00300000000FF3FFF3F83013F
:100990008301830183018301C701FE007C00000005
:1009A0000000F003FC0F0E1C073803300336073E2F
:1009B0000E1CFC3FF03300000000FF3FFF3F8301AF
:1009C000830183038307830FC71DFE387C3000003B
:1009D00000003C0C7E1CE738C330C330C330C3304A
:1009E000C7398E1F0C0F0000000000000300030039
:1009F0000300FF3FFF3F030003000300000000006F
:100A00000000FF07FF1F00380030003000300030CA
:100A10000038FF1FFF070000000007003F00F8013B
:100A2000C00F003E003EC00FF8013F00070000006D
:100A30000000FF3FFF3F001C00068003800300060C
:100A4000001CFF3FFF3F0000000003300F3C1C0E66
:100A50003003E001E00130031C0E0F3C03300000C6
:100A6000000003000F003C00F000C03FC03FF0005A
:100A70003C000F000300000000000330033C033E75
:100A80000333C331E33033301F300F300330000005
:100A9000000000000000FF3FFF3F03300330033041
:100AA000033000000000000000000E001C003800B1
:100AB0007000E000C00180030007000E001C001859
:100AC0000000000000000330033003300330FF3F1C
:100AD000FF3F0000000000000000600070003800D0
:100AE0001C000E0007000E001C00380070006000A3
:100AF000000000C000C000C000C000C000C000C0B6
:100B000000C000C000C000C00000000000000000E5
:100B100000003E007E004E000000000000000000CB
:100B20000000001C403E603360336033603360334C
:100B30006033E03FC03F00000000FF3FFF3FC03098
:100B40006030603060306030E038C01F800F0000DF
:100B50000000800FC01FE0386030603060306030CF
:100B60006030C018800800000000800FC01FE0380F
:100B7000603060306030E030C030FF3FFF3F000049
:100B80000000800FC01FE03B603360336033603390
:100B90006033C013800100000000C000C000FC3FB3
:100BA000FE3FC700C300C3000300000000000000B8
:100BB00000008003C0C7E0CE60CC60CC60CC60CCCD
:100BC00060E6E07FE03F00000000FF3FFF3FC00025
:100BD000600060006000E000C03F803F0000000057
:100BE00000000000000000306030EC3FEC3F0030BF
:100BF0000030000000000000000000000000006065
:100C000000E000C060C0ECFFEC7F000000000000CE
:100C100000000000FF3FFF3F00038007C00FE01C03
:100C200060380030000000000000000000000030CC
:100C30000330FF3FFF3F00300030000000000000A5
:100C40000000E03FC03FE000E000C03FC03FE000E8
:100C5000E000C03F803F000000000000E03FE03FB8
:100C60006000600060006000E000C03F803F000066
:100C70000000800FC01FE0386030603060306030AE
:100C8000E038C01F800F00000000E0FFE0FF600CB4
:100C90006018601860186018E01CC00F8007000022
:100CA00000008007C00FE01C601860186018601812
:100CB000600CE0FFE0FF000000000000E03FE03FCC
:100CC000C0006000600060006000E000C000000044
:100CD0000000C011E0336033603360336033603F45
:100CE000401E000000000000000060006000FE1FC9
:100CF000FE3F6030603060300030000000000000D7
:100D00000000E00FE01F00380030003000300030FD
:100D10000018E03FE03F000000006000E0018007B5
:100D2000001E00380038001E8007E001600000004F
:100D30000000E007E01F0038001CE00FE00F001C7F
:100D40000038E01FE007000000006030E038C01D00
:100D5000800F0007800FC01DE038603000000000E9
:100D6000000000006000E08180E7007E001E800738
:100D7000E001600000000000000060306038603C6E
:100D800060366033E031E030603020300000000039
:100D9000000000008000C001FC1F7E3F0770036060
:100DA000036003600000000000000000000000007D
:100DB0000000BF3FBF3F0000000000000000000037
:100DC0000000000003600360036007707E3FFC1FAB
:100DD000C0018000000000000000100018000C009E
:100DE00004000C001800100018000C0004000000A3
:100DF0000000000F800FC00C600C300C300C600C39
:100E0000C00C800F000F00000000F001FC070ECEA8
:100E100007DC03F803F80318071C1E0E1C0600006D
:100E20000000E00FE01F0C380C30003000300C30B8
:100E30000C18E03FE03F00000000800FC01FE03BC7
:100E4000603368336C3366336233C0138003000051
:100E50000000001C403E68336C33663366336C33ED
:100E60006833E03FC03F00000000001C403E6C3390
:100E70006C33603360336C336C33E03FC03F000051
:100E80000000001C403E6033623366336C336833CD
:100E90006033E03FC03F00000000001C403E603374
:100EA00064336A336A3364336033E03FC03F000029
:100EB0000000800FC01FE0B860B060F060F06030EC
:100EC000E038C018800800000000800FC01FE83321
:100ED0006C33663366336C336833C01380030000B1
:100EE0000000800FC01FEC336C33603360336C3311
:100EF0006C33C013800300000000800FC01FE0337C
:100F0000623366336C3368336033C0138003000090
:100F10000000000000000C306C30E03FEC3F0C3073
:100F20000030000000000000000000000000083059
:100F30006C30E63FE63F0C30083000000000000057
:100F400000000000000000306230E63FEC3F083057
:100F5000003000000000000000000038003E830F59
:100F6000E30D780C780CE30D830F003E0038000091
:100F700000000038003E800FE20D750C750CE20D8C
:100F8000800F003E003800000000F83FF83F983125
:100F900098319C319E319B319931183018300000C6
:100FA0000000801CC03E40224022C01F803F4022E3
:100FB0004022C033801100000000003C803FF00759
:100FC0007C061F06FF3FFF3FC330C33003300000E5
:100FD0000000800FC01FE8386C30663066306C301F
:100FE000E838C01F800F00000000800FC01FEC38E1
:100FF0006C30603060306C30EC38C01F800F000007
:101000000000800FC01FE038623066306C306830FE
:10101000E038C01F800F00000000E00FE01F08381C
:101020000C30063006300C300818E03FE03F00007E
:101030000000E00FE01F0038023006300C300830AE
:101040000018E03FE03F0000000000006000EC817D
:101050008CE7007E001E8C07EC01600000000000A1
:101060000000E00FF01F3B381B30183018301B30E9
:101070003B38F01FE00F00000000E00FE01F0C38CD
:101080000C30003000300C300C18E03FE03F000026
:101090000000802FC03FE018603C60366033E031D4
:1010A000C038E01FA00F0000000000000018801CE6
:1010B000F81FFC0B8C188C181C181818000800005E
:1010C0000000F02FF83F1C180C3E8C37EC317C30C0
:1010D0001838FC1FF40F0000000000001004300658
:1010E0006003C001C001600330061004000000006E
:1010F00000000000003080708060FE7FFF3F8300B2
:1011000087000600000000000000001C403E603325
:1011100068336C33663362336033E03FC03F0000B6
:1011200000000000000000306830EC3FE63F023075
:1011300000300000000000000000800FC01FE038F9
:1011400068306C3066306230E038C01F800F0000BD
:101150000000E00FE01F003808300C30063002308D
:101160000018E03FE03F000000000000E03FE83FE3
:101170006C0064006C006800EC00C43F803F00001D
:101180000000F83FF83F7200E300C101830302074B
:10119000030EF93FF83F000000007000FA06DB067E
:1011A000DB06DB06DB06DB06DB06FF06FE000000D7
:1011B00000003C007E06E706C306C306C306C3065E
:1011C000E7067E063C0000000000000E001F803B8A
:1011D000C031FB307B3000300038001E000E0000B4
:1011E0000000F007F80F1C1CEC1BEC1BAC18EC1BF0
:1011F0004C1B1C1CF80FF0071800180018001800F2
:1012000018001800180018001800F803F803000070
:10121000000048007C047C0640038001C000601987
:10122000301D101700120000000048007C047C06EE
:1012300040038001C00660073004101F001F00003B
:101240000000000000000000800FF33FF33F800F1C
:10125000000000000000000000008000C0016003EA
:10126000200200008000C001600320020000000096
:10127000000020026003C001800000002002600323
:10128000C00180000000000055550000AAAA00001F
:1012900055550000AAAA000055550000AAAA000052
:1012A000AAAA5555AAAA5555AAAA5555AAAA555546
:1012B000AAAA5555AAAA5555AAAAFFFF5555FFFF38
:1012C000AAAAFFFF5555FFFFAAAAFFFF5555FFFF2A
:1012D00000000000000000000000FFFFFFFF000012
:1012E00000000000000000008001800180018001FA
:1012F0008001FFFFFFFF0000000000000000000071
:1013000000000038003E800FE40D7E0C7B0CE10DE8
:10131000800F003E0038000000000038003E840FBF
:10132000E60D7B0C7B0CE60D840F003E00380000C0
:1013300000000038003E800FE10D7B0C7E0CE40DB8
:10134000800F003E003800000000F007F80F1C1C62
:10135000CC19EC1B2C1A6C1B4C191C1CF80FF00739
:10136000C006C006FFFEFFFE0000FFFFFFFF0000FB
:10137000000000000000000000000000FFFFFFFF71
:101380000000FFFFFFFF0000000000000000000061
:10139000C006C006C0FEC0FEC000C0FFC0FF000007
:1013A0000000000000000000C006C006FF06FF06A7
:1013B0000006FF07FF07000000000000000000001B
:1013C00000000000E003F007380EFE3FFE3F180C5F
:1013D000380E300600000000000003000F0A3C0A2F
:1013E000F00AC03FC03FF00A3C0A0F0A03000000A9
:1013F0008001800180018001800180FF80FF00006A
:1014000000000000000000000000000000000000DC
:101410000000FF01FF018001800180018001800147
:1014200080018001800180018001FF01FF018001B6
:1014300080018001800180018001800180018001A4
:10144000800180FF80FF8001800180018001800198
:1014500000000000000000000000FFFFFFFF80010F
:101460008001800180018001800180018001800174
:101470008001800180018001800180018001800164
:1014800080018001800180018001FFFFFFFF80015A
:1014900080018001800180010000001C403E683313
:1014A0006C3364336C3368336C33E43FC03F00000B
:1014B00000000038003E820FE30D790C7B0CE20D3A
:1014C000830F013E0038000000000000FF07FF0707
:1014D0000006FF06FF06C006C006C006C006C0061E
:1014E00000000000C0FFC0FFC000C0FEC0FEC0067C
:1014F000C006C006C006C006C006C006FF06FF063E
:101500000006FF06FF06C006C006C006C006C006ED
:10151000C006C006C0FEC0FEC000C0FEC0FEC006C1
:10152000C006C006C006C00600000000FFFFFFFFA7
:101530000000FFFEFFFEC006C006C006C006C006D3
:10154000C006C006C006C006C006C006C006C0066B
:10155000C006C006C006C006C006C006FFFEFFFEED
:101560000000FFFEFFFEC006C006C006C006C006A3
:101570000000F61BFE1F18060C0C0C0C0C0C0C0CBF
:101580001806FE1FF61B0000000000000000781C7B
:10159000FC3ECC338C330C3F181E000000000000D2
:1015A0000000C000FF3FFF3FC33003300330073867
:1015B0000E1CFC0FF00300000000F83FF83F9C31C8
:1015C0009E319B319B319E319C3118301830000088
:1015D0000000F83FF83F9B319B31983198319B31A7
:1015E0009B311830183000000000F83FF83F993167
:1015F0009B319E319C319831983118301830000061
:10160000000000000000000000007E007E000000DE
:101610000000000000000000000000000000183082
:101620001830FC3FFE3F1B30193000000000000066
:101630000000000000001C301E30FB3FFB3F1E304E
:101640001C300000000000000000000000001B3003
:101650001B30F83FF83F1B301B300000000000003B
:1016600080018001800180018001FF01FF010000F5
:10167000000000000000000000000000000000006A
:10168000000080FF80FF80018001800180018001D7
:10169000FFFFFFFFFFFFFFFFFFFFFFFFFFFFFFFF5A
:1016A000FFFFFFFFFFFFFFFF00FF00FF00FF00FF46
:1016B00000FF00FF00FF00FF00FF00FF00FF00FF32
:1016C00000000000000000000000BF3FBF3F00001E
:1016D00000000000000000000000000000001930C1
:1016E0001B30FE3FFC3F18301830000000000000A7
:1016F000FF00FF00FF00FF00FF00FF00FF00FF00F2
:10170000FF00FF00FF00FF000000E00FF01F38386F
:1017100018301C301E301B303938F01FE00F00002D
:1017200000000000C0FFE0FF302110211021303305
:10173000E03FC01E000000000000E00FF01F3C383A
:101740001E301B301B301E303C38F01FE00F0000F5
:101750000000E00FF01F39381B301E301C301830ED
:101760003838F01FE00F00000000800FC81FEC3871
:1017700064306C3068306C30E438C01F800F00007B
:101780000000E00FF01F3A381B3019301B301A30C0
:101790003B38F11FE00F00000000F0FFF0FF000EEB
:1017A000000C000C000C0006F00FF00F0000000011
:1017B000000000000C30FC3FFC3F6C366006600609
:1017C000E007C00300000000000000000330FF3FFE
:1017D000FF3F1B3618061806F807F003000000004C
:1017E0000000F807F81F00380030043006300330DE
:1017F0000138F81FF80700000000F807F81F043848
:1018000006300330033006300438F81FF8070000B4
:101810000000F807F81F01380330063004300030AC
:101820000038F81FF8070000000000006000E081A9
:1018300080E7107E181E8C07E401600000000000A5
:1018400000000800180030006000C43FC63F63007D
:101850003100180008000000000000000000000037
:1018600000000C000C000C000C0000000000000048
:10187000000000000000000004000600030001005A
:101880000000000000000000000000000000C00098
:10189000C000C000C000C000C00000000000000088
:1018A000000000000000C018C018F01BF01BC0189A
:1018B000C018000000000000000000000000C0068A
:1018C000C006C006C006C006C0060000000000003A
:1018D0000000440054047C0628038001C006600711
:1018E0003004101F001F0000000038007C00C600FC
:1018F0008200FE3FFE3F0200FE3FFE3F020000006E
:1019000000000000DC08FE19221122112211221110
:10191000E61FC40E000000000000000080018001EE
:101920008001B00DB00D8001800180010000000039
:10193000000000000000400080008000C000C000E7
:1019400000000000000000000000000000001E0079
:101950003F00330033003F001E0000000000000085
:10196000000000008001C003800100000000800131
:10197000C003800100000000000000000000000023
:1019800000008001C0038001000000000000000092
:101990000000000002001F001F0000000000000007
:1019A0000000000000000000000000001100150011
:1019B00015001F000A0000000000000000000000E9
:1019C0000000000019001D001500170012000000A3
:1019D0000000000000000000000000000000000007
:1019E000F003F003F003F00300000000000000002B
:1019F00000000000000000000000000000000000E7
:101A000000000000000000000C10000000000000BA
:101A100000000000000000000000000000000000C6
:101A200000000000000000000000000000000000B6
:101A3000000000000000000000000000FE1B00008D
:101A40000000000000000000000000001E00000078
:101A5000000000001E00000000000000000120192E
:101A6000A00778012619A0077801260120010000AF
:101A7000000000001C1826104210FF3F8211020FC8
:101A8000000000001C102208220422039C00400ECB
:101A9000301108110411020E000780085C1062105A
:101AA000A21132131C1C0018001680010000000057
:101AB000000000001E000000000000000000000008
:101AC000000000000000E00718180C30042002405D
:101AD0000240000000000240024004200C301818B0
:101AE000E007000000000000000008001800F000FF
:101AF0004E00F00018000800000000000002000284
:101B000000020002E01F00020002000200020000CA
:101B100000000000000000980078000000000000B5
:101B200000000000000000000001000100010001B1
:101B3000000100010000000000000000000000188B
:101B4000001800000000000000000000000000403D
:101B50000030000C0003C00030000C000200000048
:101B60000000F0030C0C0210021002100C0CF00329
:101B7000000000000000041004100410FE1F0010FC
:101B800000100010000000000000061802140212ED
:101B90000211C2103C100000000000000000000014
:101BA0000210421042104210BC0F00000000000062
:101BB0000003C002200218020402FE1F00020002FD
:101BC00000000000000000003E1022102210420819
:101BD00082070000000000000000F0074C082210FF
:101BE00022102210420880070000000000000200BE
:101BF00002180207C20032000A00060000000000BE
:101C000000001C0FA21042104210A210A2091C06D4
:101C1000000000000000780084100211021102117F
:101C2000840CF803000000000000000000006018B1
:101C3000601800000000000000000000000000002C
:101C400000006098607800000000000000000000C4
:101C500000000000000300038004800440084008E6
:101C600020100000000080048004800480048004B0
:101C70008004800480040000000020104008400818
:101C800080048004000300030000000000000E0038
:101C90000200021B8200420026001C00000000001F
:101CA000F003180C0418E21312140A168A1BFC071E
:101CB000000400040010000E8003700218023002BD
:101CC000C0020003000C00100000F81F88108810EC
:101CD000881088104811300E00000000C003300C3E
:101CE0001008081008100810081018100000000054
:101CF0000000F81F08100810081008101008E0076E
:101D0000000000000000F81F081108110811081158
:101D100008110810000000000000F81F0801080169
:101D20000801080108010800000000000000C003CD
:101D3000300C10080810081008110811181F0000B6
:101D40000000F81F00010001000100010001F81F60
:101D5000000000000000081008100810F81F08100C
:101D6000081008100000000000000000001008101B
:101D700008100810F80F0000000000000000F81F15
:101D800080008001400220041004080800100000B8
:101D90000000F81F001000100010001000100010CC
:101DA00000000000F81F3800E00100070006C00135
:101DB0003800F81F000000000000F81F100060004D
:101DC000800100060008F81F000000000000E00786
:101DD000100808100810081008101008E00700008C
:101DE0000000F81F080108010801080188007000C0
:101DF000000000000000E00710080810081008109C
:101E000008301048E04700000000F81F08010801F2
:101E1000080388047008001000000000000070181B
:101E200048108810881008110809180E00000000DA
:101E30000800080008000800F81F08000800080053
:101E4000080000000000F807001800100010001043
:101E50000008F8070000000008003000C00100067C
:101E6000001800180007C000300008001800E00348
:101E7000001C000FE000C001000E001CE003180071
:101E80000810100820044002800180014002200454
:101E9000100808100800100060008000001F80007B
:101EA0004000200010000800000008180814081264
:101EB00008118810481028101810000000000000B9
:101EC0000000FE7F0240024002400240000000008D
:101ED000000002000C003000C0000003000C0030C5
:101EE0000040000000000240024002400240FE7F2D
:101EF0000000000000000000000000040003E000FB
:101F000038000E0070008003000400000020002054
:101F100000200020002000200020002000200020C1
:101F200000000000000000000100020000000000AE
:101F3000000000000000000C2012201120112009D8
:101F4000C01F0010000000000000FE1F400820100D
:101F500020102010600880070000000000008007AB
:101F60004008201020102010201020100000000039
:101F70000000800740182010201020104008FE1F8D
:101F800000000000000080074009201120112011EE
:101F90002011C01100000000000020002000FC1FE4
:101FA00024002200220022002200000000008007FE
:101FB00040982090209020904048E03F0000000092
:101FC0000000FE1F80004000200020002000C01FF5
:101FD000000000000000200020002600E61F000096
:101FE0000000000000000000000000802080208031
:101FF0002680E67F00000000000000000000FE1FB9
:10200000000100038004400440082010000000008C
:1020100000000000020002000200FE1F000000009D
:1020200000000000E01F400020002000C01F400012
:1020300020002000C01F00000000E01FC000400082
:10204000200020002000C01F0000000000008007CA
:1020500040082010201020104008800700000000D9
:102060000000E0FF400820102010201060088007CA
:1020700000000000000080074018201020102010F1
:102080004008E0FF0000000000000000E01F8000AA
:10209000400020002000E000000000000000C01808
:1020A0002011201120122012200C0000000000003E
:1020B000000020002000F80F201020102010201019
:1020C000000000000000E00F0010001000100008E9
:1020D000E01F0000000000002000C0010006001802
:1020E0000010000C0003C00020000000600080070A
:1020F0000018000EC0018001000E0018800760006B
:102100000000201040088004000300038004400801
:10211000201000002080C080008300460038001896
:1021200000060001C000200000002010201820142C
:1021300020122011A01060102010000000000000EC
:1021400000010001FC3E024002400240000000008D
:102150000000000000000000FE7F00000000000002
:102160000000000000000000024002400240FC3E6F
:1021700000010001000000000003800080008000DA
:102180000001000100020002000280010000801F27
:10219000C010201010102010C010801F0000000080
:1021A000000000000000000000000000000000002F
:1021B000000000000000000000000000FFCCFFCC89
:1021C000000000000000000000000000F000F0002F
:1021D00000000000F000F000000000000CC00CC087
:1021E000FFFCFFFC0CC00CC0FFFCFFFC0CC00CC0D3
:1021F0000C601E703F303330FFFCFFFC333033F097
:1022000039E018C06000F00CF03C60F003C00F0033
:102210003C18F03CC03C00183CF07FF8C31CC78C55
:10222000CFCCDCEC7878303000FC00CC0000000033
:1022300000004400EC00F800700000000000000006
:10224000000000000FC03FF078786018C00CC00C90
:102250000000000000000000C00CC00C601878787E
:102260003FF00FC0000000000C600EE007C00380CC
:102270003FF83FF8038007C00EE00C600300030046
:10228000030003003FF03FF00300030003000300DE
:10229000004400EC00F800700000000000000000A6
:1022A000000000000300030003000300030003001C
:1022B00003000300030003000018003C003C00186A
:1022C0000000000000000000000000000000000C02
:1022D000003C00F003C00F003C00F000C000000014
:1022E0003FF07FF8E0FCC1CCC38CC70CCE0CFC1CCB
:1022F0007FF83FF000000000300C700CFFFCFFFC8A
:10230000000C000C00000000300C701CE03CC07C95
:10231000C0ECC1CCC38CE70C7E0C3C0C3030703868
:10232000E01CC00CC00CC30CC30CE31C7FF83CF0D9
:1023300003C007C00EC01CC038C070C0FFFCFFFC4B
:1023400000C000C0FC30FC38CC1CCC0CCC0CCC0C3D
:10235000CC0CCE1CC7F8C3F03FF07FF8E31CC30CD5
:10236000C30CC30CC30CE39C71F830F0C000C00078
:10237000C000C000C3FCC7FCCE00DC00F800F000C9
:102380003CF07FF8E79CC30CC30CC30CC30CE79C68
:102390007FF83CF03C007E00E70CC30CC31CC33844
:1023A000C370E7E07FC03F800000000000001860BD
:1023B0003CF03CF01860000000000000000000004D
:1023C000000018443CEC3CF81870000000000000CD
:1023D0000000030007800FC01CE038707038E01C5C
:1023E000C00C00000CC00CC00CC00CC00CC00CC059
:1023F0000CC00CC00CC00CC00000C00CE01C70383D
:1024000038701CE00FC0078003000000300070002F
:10241000E000C000C1ECC3ECC300E6007E003C005D
:1024200030F071F8E39CC30CC3FCC3FCC00CE01C8F
:102430007FF83FF03FFC7FFCE0C0C0C0C0C0C0C020
:10244000C0C0E0C07FFC3FFCFFFCFFFCC30CC30C22
:10245000C30CC30CC30CE79C7FF83CF03FF07FF843
:10246000E01CC00CC00CC00CC00CE01C703830303C
:10247000FFFCFFFCC00CC00CC00CC00CC00CE01C6E
:102480007FF83FF0FFFCFFFCC30CC30CC30CC30C74
:10249000C30CC30CC00CC00CFFFCFFFCC300C3008A
:1024A000C300C300C300C300C000C0003FF07FF8FA
:1024B000E01CC00CC00CC30CC30CE31C73F833F05D
:1024C000FFFCFFFC03000300030003000300030004
:1024D000FFFCFFFC00000000C00CC00CFFFCFFFC78
:1024E000C00CC00C0000000000300038C01CC00C44
:1024F000C00CC01CFFF8FFF0C000C000FFFCFFFCD8
:10250000078007800FC01CE038707038E01CC00CDA
:10251000FFFCFFFC000C000C000C000C000C000C7D
:10252000000C000CFFFCFFFC700038001F001F00B7
:1025300038007000FFFCFFFCFFFCFFFC1C000E00DD
:102540000700038001C000E0FFFCFFFC3FF07FF8C4
:10255000E01CC00CC00CC00CC00CE01C7FF83FF0AD
:10256000FFFCFFFCC300C300C300C300C300E700BF
:102570007E003C003FF07FF8E01CC00CC0CCC0ECFB
:10258000C07CE0387FFC3FECFFFCFFFCC300C38055
:10259000C380C3C0C3C0E7707E3C3C1C3C187E1C9B
:1025A000E70CC30CC30CC30CC30CC39CE1F860F074
:1025B000C000C000C000C000FFFCFFFCC000C000A5
:1025C000C000C000FFF0FFF8001C000C000C000C65
:1025D000000C001CFFF8FFF0FFC0FFE000700038A7
:1025E000001C001C00380070FFE0FFC0FFF0FFF887
:1025F000001C003C00F800F8003C001CFFF8FFF055
:10260000F03CF87C1CE00FC0078007800FC01CE086
:10261000F87CF03CFC00FE000700038001FC01FC9C
:1026200003800700FE00FC00C03CC07CC0ECC1CCB5
:10263000C38CC70CCE0CDC0CF80CF00C00000000B6
:10264000FFFCFFFCC00CC00CC00C00000000000030
:10265000300030000C000C000300030000C000C07C
:102660000030003000000000C00CC00CC00CFFFCAB
:10267000FFFC0000000000000C001C00380070008F
:10268000E000E000700038001C000C00000C000CA2
:10269000000C000C000C000C000C000C000C000CDA
:1026A00000000000C000E0007000380018000000CA
:1026B00000000000003006780EFC0CCC0CCC0CCCDA
:1026C0000CCC0ECC07FC03F8FFFCFFFC030C030C46
:1026D000030C030C030C039C01F800F003F007F853
:1026E0000E1C0C0C0C0C0C0C0C0C0E1C07380330C4
:1026F00000F001F8039C030C030C030C030C030C07
:10270000FFFCFFFC03F007F80EDC0CCC0CCC0CCC6F
:102710000CCC0EDC07D80390000003003FFC7FFCCC
:10272000E300E30070003000000000000318079C85
:102730000FCC0CCC0CCC0CCC0CCC0CDC0FF807F078
:10274000FFFCFFFC0300030003000300038001FC07
:1027500000FC000000000000000000001BFC1BFC4F
:102760000000000000000000000000300038001CE5
:10277000000C000C001CCFF8CFF000000000FFFCA4
:10278000FFFC00E001E003F007380E1C0C0C000019
:1027900000000000C00CC00CFFFCFFFC000C000C93
:1027A000000000000FFC0FFC0E00070003C003C078
:1027B00007000E000FFC0FFC0FFC0FFC03000700CE
:1027C0000E000C000C000E0007FC03FC03F007F8E1
:1027D0000E1C0C0C0C0C0C0C0C0C0E1C07F803F053
:1027E0000FFC0FFC0CC00CC00CC00CC00CC00FC008
:1027F00007800300030007800FC00CC00CC00CC092
:102800000CC00CC00FFC0FFC0FFC0FFC038007007A
:102810000E000C000C000E00070003000318079CBC
:102820000FCC0CCC0CCC0CCC0CCC0CFC0E780630A9
:1028300000000C000C00FFF0FFF80C1C0C1C0C3806
:102840000C3000000FF00FF8001C000C000C000C06
:10285000000C001C0FF80FF00FC00FE000700038E4
:10286000001C001C003800700FE00FC00FF00FF8C4
:10287000001C001C00F800F8001C001C0FF80FF0F2
:102880000C0C0E1C073803F001E001E003F00738E0
:102890000E1C0C0C0C000E00070C039C01F801F040
:1028A000038007000E000C000C0C0C1C0C3C0C7C74
:1028B0000CEC0DCC0F8C0F0C0E0C0C0C000003005C
:1028C00007803FF07CF8E01CC00CC00CC00C00007E
:1028D000030C030C3FFC7FFCE30CC30CC00CE00CAE
:1028E000700C300C0000C00CC00CC00CE01C7CF85C
:1028F0003FF0078003000000C000C000C000C0001F
:10290000C000C000C000C000C000C000FFFCFFFC51
:10291000FFFCFFFCFFFCFFFCFFFCFFFCFFFCFFFCDF
:10292000000000000000005F000000070007001426
:102930007F147F14242A7F2A1223130864623649E5
:102940005522500005030000001C224100004122D6
:102950001C0014083E081408083E08080050300007
:102960000008080808080060600000201008040241
:102970003E5149453E00427F400042615149462157
:1029800041454B311814127F1027454545393C4AC3
:102990004949300171090503364949493606494913
:1029A000291E003636000000563600000814224169
:1029B00000141414141400412214080201510906D1
:1029C000324979413E7E1111117E7F494949363E97
:1029D000414141227F4141221C7F494949417F09B0
:1029E0000909013E4149497A7F0808087F00417F73
:1029F00041002040413F017F081422417F40404078
:102A0000407F020C027F7F0408107F3E4141413E1F
:102A10007F090909063E4151215E7F091929464671
:102A20004949493101017F01013F4040403F1F209A
:102A300040201F3F4038403F63140814630708706C
:102A400008076151494543007F41410002040810D5
:102A5000200041417F000402010204404040404008
:102A6000000102040020545454787F48444438380C
:102A700044444420384444487F3854545418087E11
:102A80000901020C5252523E7F0804047800447D32
:102A900040002040443D007F1028440000417F401A
:102AA000007C041804787C080404783844444438D2
:102AB0007C14141408081414147C7C0804040848BA
:102AC00054545420043F4440203C4040207C1C206F
:102AD00040201C3C4030403C44281028440C5050BE
:102AE000503C4464544C44000836410000007F00D0
:102AF000000041360800100808100800000000001F
:102B0000502E4E2E4C2E492E452E3F2E252E0E2E6B
:102B1000092E042E012EFD2DFA2DF72DF22DEC2D70
:102B2000E72DE32DE12DDF2DDD2DD82DD32DCF2D5C
:102B3000CB2DC72DC42DBE2DB92DAD2D9E2D962D7F
:102B40008C2D7F2D6B2D582D442D3E2D352D332D65
:102B5000312D2F2D2D2D2B2D292D272D252D232DBD
:102B6000212D162DF62C8439823980397D39793919
:102B70007339593942393D393839353931392E3976
:102B80002B39263920391B391739153913391139A1
:102B90000C3907390339FF38FB38E938E338DE38B8
:102BA000CE38BF38B738AD38A0388C38793865386A
:102BB0005F3856385438523850384E384C384A38C6
:102BC0004838463844384238373817380B38F837E1
:102BD000ED37DB37D037A43790377A376437533740
:102BE0004937403729370D370B37F836E436D536B5
:102BF000BD36B636AF36A836A1369A3693369036FD
:102C00008C36893686366E363236F735F535F335FD
:102C1000F135EF35ED35EB35E935E135CF35C235F9
:102C2000C035BE35BC35A0359E359C359A356835E6
:102C300050351F35E934CD34C434AC34833460347A
:102C40003D341A34E933B933A233853370335C33FE
:102C50003B332933173304330033F832F332E13294
:102C6000C332A73297327F326F324A312C3107316B
:102C7000F430DB30C430A830A630A430A2309D3010
:102C8000973092308D30873081307A3076307230A4
:102C90006C30673064306130573051304A304830E2
:102CA00046304430423040303E303C303A303830AC
:102CB00036303430323030302E3027301F3017303D
:102CC000113009300130FA2FF22FE02FCD2FBB2F1A
:102CD000B22F9F2F8D2F832F752F592F382F262FEF
:102CE000F72EE62ED12EBC2EA12E9F2E9D2E9B2E92
:102CF000992E972E7A2E4C6F616420636F6D706CE5
:102D00006574652E2E2E2046726565206D656D6F8B
:102D10007279203A20004C6F6164696E672E2E2E06
:102D200000200020002000200020002000200020A3
:102D3000002000200053657474696E677300506151
:102D4000696E7400496E70757420646174612061ED
:102D50006E616C797A65720050574D2057617665C7
:102D60002047656E657261746F7200492F4F204372
:102D70006F6E74726F6C2050726F6772616D004E6F
:102D8000524620776972656C65737300426C756595
:102D9000746F6F746800534420436172640055730C
:102DA000657220496E7465726661636500465245BE
:102DB00045204D454D4F52590053544F50005354E8
:102DC00041525400424E0050494E004F5554004469
:102DD0004952004544495400506F7274003E003C13
:102DE000005E0053796D004374726C005370616330
:102DF000650043415053004F4B003C2D0045736329
:102E0000003078005361766500457869740053613D
:102E10007665206368616E6765730A616E6420651C
:102E20007869743F00446973636172642063686108
:102E30006E6765730A616E6420657869743F00434C
:102E40006C6F736500596573004E6F0058000A007F
:102E50004D656D6F727920616C6C6F636174696F21
:102E60006E206572726F720A4E6F7420656E6175A6
:102E70006768206D656D6F727900497473206F6E9D
:102E800020377468204665627265726F2C2041732A
:102E900073686F6C650A002000200020002000206D
:102EA000004E6F7420656E61756768206672656597
:102EB000206D656D6F72792E2E2E0A004D69737329
:102EC000696E672066696C656E616D652E2E2E0ACF
:102ED000004469726563746F7279206E6F74206646
:102EE0006F756E640A004469726563746F7279204D
:102EF0006572726F720A0046415433322066696C03
:102F00006573797374656D206E6F74206176616985
:102F10006C61626C65206F6E20746865205344207C
:102F2000636172640A004E6F2053442063617264CF
:102F300020666F756E640A00446973706C61792055
:102F40006974656D20636F756E74202864656661B1
:102F5000756C742036342920004C696E6520656CD0
:102F6000656D656E7473202864656661756C742088
:102F700031322920004C657373206164647265737B
:102F80007320002044617461202D3E20004F6B2C83
:102F9000206C65747320676F207468656E0A004149
:102FA000726520796F7520737572653F20792F6E79
:102FB0000A0054797065202D3E20005379736F709C
:102FC0002C206D616B696E67202D3E200056616C70
:102FD0007565206E6F7420646566696E65640A00AD
:102FE00054797065206E6F7420646566696E6564DF
:102FF0000A00204445433136200020444543382010
:103000000020434F4C4F52200020464C4F4154204B
:10301000002042494E2000204845583332200020ED
:1030200048455831362000204845583820002000B7
:103030002000200020002000200020002000200090
:10304000200020002000200020006269746D617063
:10305000006672656164006A69776F6E62646179A7
:10306000006364006C730065786974007379736F32
:10307000700046415400636C73007374617475731F
:103080000067616D6D610073746F726500636F6ED0
:1030900066006C657373007061696E7400677569B2
:1030A00078002000200020005379736F702C207569
:1030B00070646174696E672073657474696E6720EB
:1030C0002D3E200053657474696E672072656164DB
:1030D000696E67206572726F720A00536574746955
:1030E0006E67206461746120747970652065727206
:1030F0006F720A0053657474696E67206E6F742076
:10310000666F756E640A004D697373696E6720702F
:103110006172616D65746572202D6E2073657474C3
:10312000696E67206E756D6265720A004D69737312
:10313000696E6720706172616D65746572202D61C2
:1031400020616464726573730A00636F6E66207039
:10315000726F6772616D2068656C700A0A312E208B
:10316000546F207265616420612073657474696EA8
:10317000672063616C6C0A636F6E66202D61205B53
:10318000616464725D202D6E205B6E756D62657288
:103190005D0A0A322E20546F2075706461746520B8
:1031A000612073657474696E672063616C6C0A6377
:1031B0006F6E66202D61205B616464725D202D6EF0
:1031C000205B6E756D6265725D202D76205B6E658D
:1031D000772076616C5D0A0A332E20546F2063726B
:1031E0006561746520612073657474696E6720631E
:1031F000616C6C0A636F6E66202D61205B61646494
:10320000725D202D6E205B6E756D6265725D202D86
:103210006D205B63617074696F6E5D202D76205B3D
:1032200076616C5D202D74205B747970655D0A0A8F
:10323000342E20496620796F7520646F6E74206B80
:103240006E6F772077686174207468652066756397
:103250006B20746F20646F2063616C6C0A636F6E07
:1032600066202D3F0A0A5468616E6B730A0A005388
:10327000657474696E67206E756D626572200053A7
:10328000657474696E67732073746172742061640D
:10329000647265737320004D656D6F72792075706F
:1032A00064617465640A004D697373696E672070A8
:1032B0006172616D65746572202D762076616C7522
:1032C000650A004D697373696E6720706172616D84
:1032D00065746572202D6120616464726573730A80
:1032E000004461746120746F207772697465202DC9
:1032F0003E200052414D2000454550524F4D200088
:10330000494F20004164647265737320706F696E69
:10331000747320746F200053746F7265206164644D
:1033200072657373202D3E20004E656564206043F6
:10333000527379736F7060434E0A00436F6E736F00
:103340006C652062756666657220757365642028F9
:10335000696E6465785F6229203A2000436F6E735E
:103360006F6C65206D617820636F6C73203A20006C
:10337000436F6E736F6C65206D6178206C696E654C
:1033800073203A2000436F6E736F6C6520696E7016
:103390007574206275666665722073697A65203A75
:1033A0002000436F6E736F6C652062756666657290
:1033B0002073697A65203A2000546F756368206332
:1033C0007572736F722063616C6962726174696F88
:1033D0006E20592073657420746F202D342028646A
:1033E000656661756C74290A00546F7563682063A3
:1033F0007572736F722063616C6962726174696F58
:103400006E20582073657420746F202D323420286C
:1034100064656661756C74290A00436F6E736F6C26
:103420006520546578742054797065207365742024
:1034300031202864656661756C74290A00436F6EDB
:10344000736F6C65205465787420436F6C6F7220C5
:1034500073657420746F2064656661756C740A000E
:10346000436F6E736F6C65204261636B20436F6CBA
:103470006F722073657420746F2064656661756C6B
:10348000740A00436F6E736F6C65204B65797061D1
:10349000642053697A652073657420746F2033301B
:1034A000202864656661756C74290A004572726F24
:1034B000722072656164696E672073657474696EE9
:1034C000673A20002042797465730A0000436F6EEA
:1034D000736F6C652062756666657220616C6C6FD7
:1034E0006361746564203A2000436F6E736F6C658E
:1034F00020696E70757420627566666572207369E6
:103500007A652073657420746F20313238206279B7
:10351000746573202864656661756C74290A0043BC
:103520006F6E736F6C652062756666657220736975
:103530007A652073657420746F20313032342062D4
:1035400079746573202864656661756C74290A0056
:103550004572726F722072656164696E672073656F
:103560007474696E673A0A0041544D454C204154C9
:10357000786D6567613132384133552040203332F0
:10358000204D687A0A0A6E496E67656E2053686539
:103590006C6C2056312E300A0A00200020002000DA
:1035A0004974656D20310A4974656D20320A497489
:1035B000656D20330A4974656D20340020002000B9
:1035C0002000436F6D6D616E64206C696E6500470D
:1035D00072617068696320696E74657266616365A3
:1035E0000057656C636F6D6500200020002000208F
:1035F000002000200020004D656D6F727920616C05
:103600006C6F636174696F6E206572726F723A20BD
:10361000656D657267656E63792062756666657251
:103620002073697A65203D203332204279746573B6
:103630000A004D656D6F727920616C6C6F63617407
:10364000696F6E206572726F723A20656D65726780
:10365000656E6379206275666665722073697A6546
:10366000203D203235362042797465730A0041448A
:103670004320696E707574206461746120616E61AD
:103680006C797A657200424E003062006B487A00B5
:10369000487A00506F7274204600506F7274204553
:1036A00000506F7274204400506F727420430050B9
:1036B0006F7274204200506F72742041004D617827
:1036C00020647574792076616C756520697320318A
:1036D0003030202500496E7075742050574D20649D
:1036E00075747900496E7075742050574D2066725C
:1036F000657175656E637900506172616D657465A1
:103700007273206E6F74207365740020004B6565C2
:1037100070206F7574707574204849474820616641
:103720007465722053544F500044697361626C6534
:10373000204449522061667465722053544F5000F2
:1037400044757479205B255D004672657175656E00
:10375000637900456C656D656E7420636F756E747A
:10376000203A20004F5554207772697465206469AF
:103770007361626C65642E2E2E0044445220777271
:103780006974652064697361626C65642E2E2E0015
:1037900050494E20697320726561642D6F6E6C799B
:1037A0002E2E2E0041726520796F7520737572651B
:1037B00020796F752077616E740A746F206D6F6465
:1037C00069667920414141206269742042203F00AE
:1037D000456E61626C65204F5554005344207374EC
:1037E00061747573206368616E67656400456E611E
:1037F000626C6520444952004564697420504F5200
:103800005420502073746174757300444952204FE2
:1038100055542050494E004C6F616420636F6D70A9
:103820006C6574652E2E2E2046726565206D656D63
:103830006F7279203A20004C6F6164696E672E2E9A
:103840002E0020002000200020002000200020006A
:1038500020002000200053657474696E6773005067
:1038600061696E7400496E707574206461746120C2
:10387000616E616C797A65720050574D20576176A0
:10388000652047656E657261746F7200492F4F2025
:10389000436F6E74726F6C2050726F6772616D004F
:1038A0004E524620776972656C65737300426C7581
:1038B00065746F6F746800534420436172640055EF
:1038C00073657220496E7465726661636500465265
:1038D00045452052414D204D454D4F5259005354BE
:1038E0004F50005354415254004652454520464CD7
:1038F000415348204D454D4F52590050494E004FBD
:10390000555400444952004544495400506F727464
:10391000003E003C005E0053796D004374726C0001
:1039200053706163650043415053004F4B003C2D81
:10393000004573630030780053617665004578690F
:10394000740053617665206368616E6765730A6110
:103950006E6420657869743F0044697363617264C2
:10396000206368616E6765730A616E6420657869BB
:10397000743F00436C6F736500596573004E6F00B0
:1039800058000A00200000000000000000000000B5
:103990000000000000000000000000000000000027
:1039A0000000000000000000000000000000000017
:1039B0000000000000000000000000000000000007
:1039C0000000000000000A006E00D20036010A006C
:1039D000A0004001D6010B0180C81180C83A8105C2
:1039E0000AB1830006030A20800A3601E0B60215F8
:1039F00002B40100E00F06080908100B2288350800
:103A00001008141005E18F051014081008358824DB
:103A10000A04080606020A13800A11241FBECFEF0B
:103A2000CDBFDFE3DEBF00E00CBF10E2A0E0B0E2FC
:103A3000E6ECF7E500E00BBF02C007900D92A2355F
:103A4000B107D9F724E2A2E5B0E201C01D92A13688
:103A5000B207E1F70E94EE290C94E12B0C940000D0
:103A6000862FDA01F901613031F486E08C9388E029
:103A7000808382E00895623029F49CE09C9390E179
:103A800090830895633021F48AE08C9380E1F0CF35
:103A900080E00895DB0180524130E1F495E09C9391
:103AA00011964C93119712964C931297899FC001CF
:103AB0001124139630E020E0805E964DFC01E20F69
:103AC000F31FE491ED932F5F3F4F25303105B1F7A0
:103AD00089E00895423041F59AE09C9311964C9309
:103AE000119712964C9312971396899FC001112437
:103AF000880F991F30E020E0AC0140565E4D8F5595
:103B00009E4DFA01E20FF31FE4911A96EC931A9777
:103B1000FC01E20FF31FE491ED932E5F3F4F243140
:103B2000310579F78BE00895433041F59AE09C9395
:103B300022E011962C93119712961C9212971396CD
:103B4000899FC0011124880F991F30E020E0AC014B
:103B5000405E554E8F5D954EFA01E20FF31FE491E2
:103B6000ED93FC01E20FF31FE4911996EC93199782
:103B70002E5F3F4F2431310579F7D4CF80E008958F
:103B80000F931F93CF93DF93E82FF0E0EE0FFF1F0B
:103B9000EA59F44D05911491D0E0C0E0FE01E00F28
:103BA000F11FE4912196E111F9CFCE010E947C2A08
:103BB000009741F0C80FD91FDC01081B190BAC1787
:103BC000BD0729F4DF91CF911F910F910895F8015E
:103BD000EA0FFB1FE491ED93F2CF0F931F93CF9366
:103BE000DF93E82FF0E0EE0FFF1FE050F54D059159
:103BF0001491D0E0C0E0FE01E00FF11FE4912196A6
:103C0000E111F9CFCE010E947C2A009741F0C80F44
:103C1000D91FDC01081B190BAC17BD0729F4DF9174
:103C2000CF911F910F910895F801EA0FFB1FE491C6
:103C3000ED93F2CF009711F00C94182B089590910A
:103C40008406977F90938406909184069D7F90933D
:103C500084068093C30A8091C20A87FFFCCF8091BB
:103C600084068860809384068091840682608093B5
:103C70008406089574E0879FC0011124680F792F8E
:103C8000711D660F771FFB01EA55F64C85919491E3
:103C9000FA0180839183FB01EA57F64C8591949158
:103CA000F901808391830895BF92CF92DF92FF92B2
:103CB0000F931F93CF93DF939B01B42E8C01FC01D4
:103CC000D0E0C0E060E070E0CB01C217D30711F58F
:103CD0009E0150E040E00E94402AD12CC12CF12CE2
:103CE00060E070E0CB014B2D50E0CC15DD05D1F448
:103CF000FF2089F12F2D30E050E040E00E94402A63
:103D0000C901DF91CF911F910F91FF90DF90CF906C
:103D1000BF90089541915191640F751F811D911DB0
:103D20002196D3CFD801ED91FD918D01DF01A21B2A
:103D3000B30B2E173F0718F0D901AE1BBF0B4A1764
:103D40005B0728F06E0F7F1F811D911DF394BFEF5D
:103D5000CB1ADB0ACACF90E080E0D3CFFC01909170
:103D60008406977F9093840680818093C30A809114
:103D7000C20A87FFFCCF6230710539F481818093DC
:103D8000C30A8091C20A87FFFCCF809184068860B5
:103D9000809384060895CF92DF92EF92FF92CF93A3
:103DA000DF931F921F92CDB7DEB789839A836A0192
:103DB0007B018CE20E941F1E81E0C81AD108E10835
:103DC000F1088FEFC816D806E806F80649F40F90F8
:103DD0000F90DF91CF91FF90EF90DF90CF900895FB
:103DE00062E070E0CE0101960E94AE1EE5CFEF9238
:103DF000FF920F931F93CF93DF9300D01F92CDB705
:103E0000DEB76817790708F459C0603EE1E07E0725
:103E100008F054C02417350708F450C02034E1E0FE
:103E20003E0708F04BC089017A0199838A837B831E
:103E30006C838AE20E941F1E61E070E0CE01019651
:103E40000E94AE1E61E070E0CE0102960E94AE1E9E
:103E500061E070E0CE0103960E94AE1E61E070E06A
:103E6000CE0104960E94AE1EF982EA821B830C8367
:103E70008BE20E941F1E61E070E0CE0101960E945D
:103E8000AE1E61E070E0CE0102960E94AE1E61E0BF
:103E900070E0CE0103960E94AE1E61E070E0CE019C
:103EA00004960E94AE1E81E02496CDBFDEBFDF9156
:103EB000CF911F910F91FF90EF90089580E0F4CF84
:103EC000909184069F7E909384068093C30A80918C
:103ED000C20A87FFFCCF1092C30A8091C20A87FFF3
:103EE000FCCF8091C30A90E0982F88271092C30AD4
:103EF0002091C20A27FFFCCF3091C30A209184068B
:103F0000206120938406832B0895E0E8F6E0808109
:103F100088608083A4E8B6E08C9188608C9380816F
:103F2000826080838C9182608C93808180618083A9
:103F30008C9180618C938081806A808380818F7B6B
:103F40008083089580ED8093C00A089589E20E94DD
:103F50001F1E8FE891E00197F1F700C0000008955F
:103F600082E20C941F1E8A3D21E0920750F06833D4
:103F700021E0720770F4673321E0720711F0685F87
:103F80007F4F6093542070935520809352209093DC
:103F9000532008958F929F92AF92BF92EF92FF921B
:103FA0000F931F93CF93DF937C01FB01E901681707
:103FB000790728F4982F8F2D7B01E92FF82FC4174C
:103FC000D50728F4942F852FAE01C92FD82F9E0135
:103FD0002F5F3F4F241B350BDF011196AE19BF0930
:103FE0000E94622A4B015C019E01BF01C7010E9431
:103FF000F71EB501A401C801DF91CF911F910F9168
:10400000FF90EF90BF90AF909F908F900C94CB1E3D
:104010008F929F92AF92BF92EF92FF920F931F9356
:10402000CF93DF937C01FB01E9016817790728F43E
:10403000982F8F2D7B01E92FF82FC417D50728F46F
:10404000942F852FAE01C92FD82F9E012F5F3F4F90
:10405000241B350BDF011196AE19BF090E94622A9D
:104060004B015C019E01BF01C7010E94F71E8CE25B
:104070000E941F1E81E0881A9108A108B1088FEFE5
:1040800088169806A806B80659F4DF91CF911F91BB
:104090000F91FF90EF90BF90AF909F908F900895F9
:1040A000E801229662E070E0C8010E94AE1E8E0117
:1040B000E1CFCF93DF93EA019B01AB01BC010E94EA
:1040C000F71E41E050E060E070E0CE01DF91CF915B
:1040D0000C94CB1E8F929F92AF92BF92CF92DF92A1
:1040E000EF92FF920F931F93CF93DF93CDB7DEB77D
:1040F000CA55D109CDBFDEBF5B01BE016F5F7F4FE7
:104100000E944A1D10E0811148C0C65ADF4FCDBF42
:10411000DEBFDF91CF911F910F91FF90EF90DF9065
:10412000CF90BF90AF909F908F900895F12CE12C8D
:10413000802E912C8981E1E0F0E0EC0FFD1F189FAB
:10414000E00DF11D1124E80DF91D838190E00E2C86
:1041500002C0959587950A94E2F780FF12C080917E
:10416000542090915520B6016E0D7F1D680F791F68
:104170008091522090915320A501880D991D0E9495
:1041800059208FEFE81AF80A88E0E816F10491F652
:104190000F5F8981081750F21F5F8A81181730F46A
:1041A00088E0189F6001112400E0F3CF6091542053
:1041B0007091552089819B81890F9927991F2091A2
:1041C000522030915320820F931F0E94B31F9DCF26
:1041D0000C94301DEF92FF920F931F93CF93DF93B8
:1041E0008C017B01D42FC0E0F801EC0FF11D808120
:1041F000811107C0DF91CF911F910F91FF90EF9038
:104200000895CF5F4D2FB7010E946A20EDCFEF9246
:10421000FF920F931F93CF93DF937C01EB018901F2
:104220006817790720F4CB019927E7017C019A01EF
:10423000BE01C7010E94F71ECE19DF09AE0170E072
:1042400060E0C801DF91CF911F910F91FF90EF9037
:104250000C94CB1EEF92FF920F931F93CF93DF939B
:104260007B01EA0189014617570720F49A01332799
:10427000EB0179019E01A701BC010E94F71ECE1936
:10428000DF09AE0170E060E0C801DF91CF911F91BE
:104290000F91FF90EF900C94CB1E2F923F924F9274
:1042A0005F926F927F928F929F92AF92BF92CF92C6
:1042B000DF92EF92FF920F931F93CF93DF937C01D6
:1042C0005B01EA01690142175307A9F49801DF91E4
:1042D000CF911F910F91FF90EF90DF90CF90BF9003
:1042E000AF909F908F907F906F905F904F903F9096
:1042F0002F900C94072186179707B9F49801A6010F
:10430000BE01DF91CF911F910F91FF90EF90DF9051
:10431000CF90BF90AF909F908F907F906F905F9065
:104320004F903F902F900C942A219B01281B390B12
:10433000C601841B950B66246394712C37FF06C05D
:1043400031952195310966246A94762C88248394CA
:10435000912C97FF06C091958195910988248A94A4
:10436000982C1901220C331C2C01440C551C82176B
:1043700093076CF56201C21AD30AA801BE01C701F6
:104380000E945920E60CF71CD7FC04C0C80DD91DAB
:10439000C218D308C40CD51CA801BE01C7010E94D5
:1043A0005920AE14BF0471F7DF91CF911F910F9187
:1043B000FF90EF90DF90CF90BF90AF909F908F9045
:1043C0007F906F905F904F903F902F9008955C0189
:1043D000A218B308A801BE01C7010E945920C80D48
:1043E000D91D1A141B0424F0E60CF71CA40CB51CF0
:1043F000A218B308A801BE01C7010E945920CC161B
:10440000DD0669F7D1CFCF93DF93EC012FE331E0E5
:1044100050E040E06FED71E090E080E00E94F71E18
:1044200040E058E562E070E0CE01DF91CF910C945E
:10443000CB1E6F927F928F929F92AF92BF92CF923C
:10444000DF92EF92FF920F931F93CF93DF93CDB73D
:10445000DEB76097CDBFDEBF4B015C01142F390181
:10446000C701009721F0402FB9010E94EA201031C6
:1044700009F0A2C08FEF88169104A104B10411F0D5
:1044800008F0A9C0D501C40144E0B695A795979559
:1044900087954A95D1F78A30A0F5898389818A303A
:1044A00010F4805D8983882D8F708A3060F58A834F
:1044B0008A818A3010F4805D8A83402FB30189811C
:1044C0000E946A20402FB3018A810E946A20C11491
:1044D000D10429F0402FB301C6010E94EA20609662
:1044E000CDBFDEBFDF91CF911F910F91FF90EF9075
:1044F000DF90CF90BF90AF909F908F907F906F9004
:104500000895895CCACF895CD2CFD501C4013CE053
:10451000B695A795979587953A95D1F78A3008F083
:104520003FC0898389818A3010F4805D8983892D19
:104530008F708A30B8F58A838A818A3010F4805D62
:104540008A83D501C40124E0B695A79597958795F0
:104550002A95D1F78F708A3038F58B838B818A301A
:1045600010F4805D8B83882D8F708A30F8F48C83F3
:104570008C818A3010F4805D8C83402FB301898157
:104580000E946A20402FB3018A810E946A20402F36
:10459000B3018B810E946A20402FB3018C8195CF9B
:1045A000895CBFCF895CC7CF895CD7CF895CDFCFFF
:1045B000905D31C0905D34C0412F50E0BE016F5F0F
:1045C0007F4FC4010E94A12B402FB301CE01019661
:1045D0000E94EA207CCF81149104F1E0AF06B1047F
:1045E00008F493CF89829A82AB82BC82FE01319615
:1045F0005F014E01F5E08F0E911CF50181915F0185
:1046000082958F708F83319720812F7028879B81AF
:104610008A3070F2995C9B839C812A3058F2995CB5
:104620009C83402FB3010E946A20402FB3018885EC
:104630000E946A20A814B90401F749CF0F931F9371
:10464000CF93DF93EC0110E000E02FE331E048E38B
:1046500051E06FED71E090E080E00E94CA1F88E3B6
:1046600091E0809354209093552086E090E08093D1
:1046700052209093532041E060E07FE7CE01DF912C
:10468000CF911F910F910C94EA20CF92DF92EF927D
:10469000FF920F93CF93DF93C6E9D3E2A6E5B0E292
:1046A000FE01859194918D939D93229627E2C639C0
:1046B000D207B1F789E090E20E941E2365E473E21D
:1046C000D12CC12C80E2E82E80E2F82E01E028EF08
:1046D00030E040E1072E000C880B990B0E94192254
:1046E000BE01DD0F880B990B27E03FEF40E10E94F0
:1046F000192266E570E227E030E840E1072E000C61
:10470000880B990B0E9419223AEA86EE96E921E07D
:104710003150804090402040D9F70000DF91CF9188
:104720000F91FF90EF90DF90CF900895CF92DF929E
:10473000EF92FF920F931F93CF93DF936B017C0156
:104740008A01E90184E290E20E941E232FEF87EAAA
:1047500091E6215080409040E1F700C00000F894BD
:104760008091CF0187FDFCCFF80190E080E023E24B
:104770008C179D0751F58091CF0187FDFCCFD701A4
:10478000C60188279E7F25E22093CA011092C001AE
:10479000C92EDA2EEB2EFF24C092C101BD0188275D
:1047A00099276093C2018DE984BF81E08093CB019A
:1047B0008091CF0187FDFCCFDF91CF911F910F91A9
:1047C000FF90EF90DF90CF9008952093CA018093DF
:1047D000C00131913093C4010196CACF6F927F928C
:1047E0008F929F92AF92BF92CF92DF92EF92FF9201
:1047F0000F931F93CF93DF93EB017A0149013801A7
:1048000064517109CD3221E0D20708F4BE015C0188
:10481000843B9140D0F12DE2A21AB108C5010E945B
:10482000B31FB70190E080E0D12CC12C37E2E32E1A
:1048300030E2F32E01E093014AE00E941922BE010A
:10484000CD32D14030F16A507109C5010E94B31FC9
:10485000B40190E080E0D12CC12C2BE2E22E20E2CA
:10486000F22E01E093014AE00E941922DF91CF91DC
:104870001F910F91FF90EF90DF90CF90BF90AF907E
:104880009F908F907F906F90089525E0A20EB11CAD
:10489000C5CF665F7F4FD9CF4F925F926F927F9265
:1048A0008F929F92AF92BF92CF92DF92EF92FF9240
:1048B0000F931F93CF93DF936C01EB013A01290112
:1048C00057014C018FEF881A980A760181E0E81AA7
:1048D000F108AB01415051099801B401C7010E9490
:1048E00007219801AE01B401C7010E940721AE0162
:1048F0004F5F5F4F9801B401C7010E940721BE01BD
:10490000CD3281E0D80710F064517109460184EB83
:10491000C81681E0D806E0F18DE2881A9108C4013A
:104920000E94B31FB30190E080E0D12CC12C37E28C
:10493000E32E30E2F32E01E095014AE00E941922B5
:10494000BE01CD32D14040F16A507109C4010E94CC
:10495000B31FB20190E080E0D12CC12C2BE2E22EFB
:1049600020E2F22E01E095014AE00E941922DF9137
:10497000CF911F910F91FF90EF90DF90CF90BF905C
:10498000AF909F908F907F906F905F904F90089521
:1049900085E0880E911CC3CF665F7F4FD7CF81ED36
:1049A0008093C00A08958091880680FF05C0809199
:1049B000880680FD03C0089581E0089580E0089591
:1049C0008091880680FDFCCF08958091880680FF45
:1049D000FCCF08958F929F92AF92BF92CF92DF92B9
:1049E000EF92FF920F931F93CF93DF935C016B01C4
:1049F00080910120909102200E947C2AEC0190E09D
:104A000080E0209709F44AC0809100208A3018F491
:104A10008AE08093002081ED8093C00A7E014E01E0
:104A200010E000E080910120909102200817190702
:104A300008F441C0009751F08130910509F44AC053
:104A400040910020BC01CE010E94541EF5018083DC
:104A5000918310E000E080910120909102200817DE
:104A60001907D8F1009751F08130910509F444C03D
:104A700040910020BC01CE010E94541EF6018083AB
:104A8000918384EA0E94601F80ED8093C00ACE016A
:104A90000E94182B8091012090910220DF91CF91EC
:104AA0001F910F91FF90EF90DF90CF90BF90AF904C
:104AB0009F908F90089583E90E94601F34E096953F
:104AC00087953A95E1F7F401819391934F010F5F38
:104AD0001F4FA8CF88819981B9CF83ED0E94601FB5
:104AE00024E0969587952A95E1F7F70181939193B4
:104AF0007F010F5F1F4FAFCF88819981BFCF8F920A
:104B00009F92AF92BF92CF92DF92EF92FF920F935C
:104B10001F93CF93DF93EC016B01F9019B012E1BD7
:104B20003F0BD801A41BB50B0E94622A4B015C010C
:104B30009E01241B350BD701AE1BBF0B0E94622ABE
:104B400086169706A806B906E9F40417150728F48F
:104B5000942F852FA801092F182FEE16FF0628F491
:104B60009E2F8F2FF701E92EF82EC417D50750F08E
:104B70000C171D0738F0CE16DF0620F081E0EC148C
:104B8000FD0408F480E0DF91CF911F910F91FF9019
:104B9000EF90DF90CF90BF90AF909F908F9008954F
:104BA0002F923F924F925F926F927F928F929F923D
:104BB000AF92BF92CF92DF92EF92FF920F931F932B
:104BC000CF93DF93CDB7DEB7AB97CDBFDEBFBE01CE
:104BD0006F5E7F4FCE0143960E94EA242B893C8969
:104BE0002D8F3E8F49895A894F8F58A3232B11F05F
:104BF0001B8A1C8A8F8D98A1892B11F0198A1A8A19
:104C0000AA24A39410E000E03FEF3A0D39A3B12CA1
:104C10009E012F5F3F4FAE01475F5F4F6B2D89A114
:104C20000E943A1E9E012D5F3F4FAE01455F5F4FD0
:104C30006B2D8A2D0E943A1EB3949E01295F3F4F2F
:104C4000AE01415F5F4F6B2D89A10E943A1E9E010C
:104C50002B5F3F4FAE01435F5F4F6B2D8A2D0E944C
:104C60003A1E2B893C8989859A85A981BA816B85F1
:104C70007C85EB80FC804D855E856A016417750735
:104C800008F46B01F6018C159D0508F4FC0146172C
:104C9000570708F4AB014817590708F4AC018D8198
:104CA0009E816C01E816F90608F46701B601AC159F
:104CB000BD0508F4BD018E159F0508F4C7018A17CC
:104CC0009B0708F4CD01AF85B8894A175B0708F444
:104CD000AD01EF80F884E616F70608F4B7018E15EB
:104CE0009F0508F4C701AE17BF0708F4FD012E1792
:104CF0003F0708F49EC04217530708F49AC08988FA
:104D00009A888616970608F494C08815990508F4C1
:104D100090C0FE013196EAA3FBA33896EF8BF88F83
:104D2000312C212C1D8A1E8AC401B0E0A0E08CA386
:104D30009DA3AEA3BFA3C901B0E0A0E088A799A737
:104D4000AAA7BBA7ED89FE893196ED8BFE8BEAA160
:104D5000FBA1C190D190EAA3FBA38D899E898370AA
:104D60009927880F991FE1E0F0E0EC0FFD1FE80F95
:104D7000F91F0190F081E02D8C149D0408F40EC100
:104D80008E169F0608F048C0AF89B88D4D905C9094
:104D9000712C612CF12CE12C29E030E02C0F3D1F0F
:104DA000820F931FDC012D913C9150E040E02419CB
:104DB0003509460957096CA17DA18EA19FA16C19E7
:104DC0007D098E099F090E94302A698F7A8F8B8F07
:104DD0009C8F28A539A54AA55BA524193509460944
:104DE0005709BF0190E080E06C197D098E099F0989
:104DF0000E94302A298D3A8D4B8D5C8D261B370BF6
:104E0000480B590BDA01C901181619061A061B06B8
:104E10001CF43FEF231A330AEF89F88D3296EF8B9B
:104E2000F88FED89FE89349709F08CCF232809F09B
:104E30008501F3E0BF12ECCEA39424E0A212E4CEED
:104E4000BB24BA94B10EAA24AA94A00E9E012F5F8F
:104E50003F4FAE01475F5F4F6B2D8A2D0E943A1E78
:104E60009E012B5F3F4FAE01435F5F4F6B2D802F45
:104E70000E943A1E9E012D5F3F4FAE01455F5F4F7E
:104E8000612F8A2D0E943A1E9E01295F3F4FAE017D
:104E9000415F5F4F612F802F0E943A1E49855A85DE
:104EA0008B859C85480F591F56954795C980DA8098
:104EB0008D819E81C80ED91ED694C794EB80FC804C
:104EC0002F813885E20EF31EF694E794EA2DF0E088
:104ED000EE0FFF1FE253F64C85909490EB2DF0E01F
:104EE000EE0FFF1FEA53F64CA590B490E02FF0E0D0
:104EF000EE0FFF1FE253F64CA591B491E12FF0E0C5
:104F0000EE0FFF1FEA53F64C059114912D8D3E8D47
:104F1000241B350BA819B9090E94622A2D853E85EC
:104F2000EF85F8892E0F3F1F36952795241B350BEB
:104F300050E040E00E94402A280D391D209358245B
:104F4000309359242F8D38A12C193D09D801AA1965
:104F5000BB090E94622AEC18FD08970150E040E06E
:104F60000E94402A2A0D3B1D20935624309357243B
:104F7000AB96CDBFDEBFDF91CF911F910F91FF9018
:104F8000EF90DF90CF90BF90AF909F908F907F90E9
:104F90006F905F904F903F902F9008958E169F06D0
:104FA00008F43ACFAF89B88D4D905C90712C612C8C
:104FB000F12CE12C29E030E02C0F3D1F820F931FD4
:104FC000DC012D913C9150E040E02419350946095F
:104FD00057096CA17DA18EA19FA16C197D098E0935
:104FE0009F090E94302A698F7A8F8B8F9C8F28A50A
:104FF00039A54AA55BA52419350946095709BF01FA
:1050000090E080E06C197D098E099F090E94302A8A
:10501000298D3A8D4B8D5C8D261B370B480B590B18
:10502000DA01C901B7FFF8CE31E0231A3108F4CE16
:105030000C942B100F931F93CF93DF93CDB7DEB754
:10504000D450CDBFDEBFAC01DE01119620E030EEC2
:105050008D01F901859194918D939D932F5F3F4F21
:10506000211582EE3807A9F790E2FA01A6EAB9E71E
:1050700001900D929A95E1F780E2FB01A6E8B9E76D
:1050800001900D928A95E1F70E94452320E032E0DD
:10509000A80160E070EE80E090E00E9418288FE2A6
:1050A00090E20E941E239AEA26EE36E981E09150B2
:1050B000204030408040D9F70000DC5FCDBFDEBF2C
:1050C000DF91CF911F910F9108954F925F926F9250
:1050D0007F928F929F92AF92BF92CF92DF92EF9288
:1050E000FF920F931F93CF93DF93CDB7DEB7C054DA
:1050F000D109CDBFDEBF90E080E00E9403223EECEC
:10510000E32E39E3F32EB12CA12C86ECC82E89E3D3
:10511000D82E66246394712C6C0E7D1E6A0C7B1C49
:1051200021E2822E912C8C0E9D1E8A0C9B1CF60176
:1051300045915491F70165917491F701859194918E
:10514000415051096F5F7F4F28EF3FE701970E9461
:105150000721F60145915491F70165917491F7018A
:10516000859194916F5F7F4F28EF3FE701970E94F1
:105170000721F60145915491F70165917491F7016A
:10518000859194914F5F5F4F6F5F7F4F28EF3FE7AF
:1051900001970E9407210E94E024B301C4010E94EC
:1051A000EA24F60165917491F70185919491F301D8
:1051B0002081318142E0640E711CF40140815181F3
:1051C000E2E08E0E911C00E01FE70E94EE230E9499
:1051D000E5242FEF47E883E1215040408040E1F78C
:1051E00000C0000092E0C90ED11CEEECCE16E9E33F
:1051F000DE0609F09CCF22E0E20EF11C48E0A40E8E
:10520000B11C80E2A816B10409F07FCF0E94E0240F
:105210009FEFE7EA21E69150E0402040E1F700C02F
:1052200000000E94D324811104C087E390E20E9411
:105230001E230E94D324882379F081E490E20E9407
:105240001E23BE016F5F7F4FCE0181960E941A28F8
:105250008BE490E20E941E230E94E524C05CDF4F95
:10526000CDBFDEBFDF91CF911F910F91FF90EF90E7
:10527000DF90CF90BF90AF909F908F907F906F9076
:105280005F904F900895AF92BF92CF92DF92EF92CE
:10529000FF920F931F93CF93DF931F92CDB7DEB78B
:1052A0000E94851F80ED8093C00A809184068460EF
:1052B00080938406809180068460809380062FEF1F
:1052C00087E893E1215080409040E1F700C0000062
:1052D000809184068B7F80938406EFEFF7E823E1CB
:1052E000E150F0402040E1F700C0000080918406CA
:1052F000846080938406E6EDF9E3F49007ED19E30A
:10530000FA949FEFF9121AC090E080E00E94032205
:105310000E94A61FE6ECF9E385919491892B11F484
:105320000E9465280F90DF91CF911F910F91FF9000
:10533000EF90DF90CF90BF90AF900895F8018491E7
:105340000E941F1E6801F2E0CF0ED11C0F5F1F4F9D
:10535000F8010491102F1F775601E12EEA942FEFE8
:10536000E21213C0F601E10FF11D07FF1BC08F0110
:105370000F5F1F4FE491E15008F4C2CF8FE39FE12C
:105380000197F1F700C00000F6CFF5018491898301
:1053900061E070E0CE0101960E94AE1EFFEFAF1AF1
:1053A000BF0ADCCF8F01ACCF0F931F93CF93DF9356
:1053B00081E090E00E947C2A8C01C1E0D0E0CE0127
:1053C000012B29F4DF91CF911F910F9108950E9435
:1053D0007C2A8C010E94182B2196F1CF80915000DD
:1053E0008260809350008091510081FFFCCF88ED56
:1053F00084BF81E0809340000E94432970E060E018
:1054000090E080E00E94B31F0E94D429BC0190E08C
:1054100080E0D12CC12CF12CE12C03E02FEF3FEFE9
:105420004AE00E9419222AEA36EE86E991E02150EC
:10543000304080409040D9F700000E94652890E0FD
:1054400080E00E9403220E94D3248823E1F30E947B
:10545000D3248111FCCF8091880680918806FBCFF0
:10546000DB018F939F930E94712ABF91AF91A29FFE
:10547000800D911DA39F900DB29F900D1124089552
:10548000A1E21A2EAA1BBB1BFD010DC0AA1FBB1F48
:10549000EE1FFF1FA217B307E407F50720F0A21BBA
:1054A000B30BE40BF50B661F771F881F991F1A9427
:1054B00069F760957095809590959B01AC01BD0151
:1054C000CF010895A29FB001B39FC001A39F700DAB
:1054D000811D1124911DB29F700D811D1124911DFC
:1054E00008950E94622AA59F900DB49F900DA49FDD
:1054F000800D911D112408950F931F93CF93DF9377
:105500008230910510F482E090E0E0915F24F09108
:10551000602430E020E0B0E0A0E0309799F421155D
:10552000310509F44AC0281B390B24303105D8F560
:105530008A819B816115710589F1FB0182839383C7
:10554000FE0111C040815181028113814817590722
:10555000E0F04817590799F4109761F012960C93F0
:10556000129713961C933296CF01DF91CF911F9122
:105570000F91089500935F2410936024F4CF2115B8
:10558000310551F04217530738F0A901DB019A01A8
:10559000BD01DF01F801C1CFEF01F9CF80935F2496
:1055A00090936024CDCFFE01E20FF31F819391937E
:1055B0002250310928833983D7CF20915D2430913F
:1055C0005E24232B41F42091052030910620209366
:1055D0005D2430935E242091032030910420211516
:1055E000310541F42DB73EB7409107205091082076
:1055F000241B350BE0915D24F0915E24E217F30744
:10560000A0F42E1B3F0B2817390778F0AC014E5F32
:105610005F4F2417350748F04E0F5F1F40935D24FE
:1056200050935E24819391939FCFF0E0E0E09CCF74
:10563000CF93DF930097E9F0FC0132971282138237
:10564000A0915F24B0916024ED0130E020E010973C
:10565000A1F420813181820F931F20915D2430912C
:105660005E242817390709F061C0E0935D24F093A8
:105670005E24DF91CF910895EA01CE17DF07E8F5A8
:105680004A815B819E0141155105B1F7E901EA8329
:10569000FB8349915991C40FD51FEC17FD0761F4A5
:1056A000808191810296840F951FE90188839983F7
:1056B000828193818A839B83F0E0E0E012968D9152
:1056C0009C9113970097B9F52D913C911197CD01BD
:1056D0000296820F931F20915D2430915E2428173B
:1056E000390739F6309751F510925F2410926024F3
:1056F000A0935D24B0935E24BCCFC283D38340814A
:105700005181840F951FC817D90761F44E5F5F4F11
:1057100088819981480F591F408351838A819B81D9
:10572000828393832115310509F0B0CFE0935F2484
:10573000F09360249ECFFD01DC01C0CF1282138262
:10574000D7CF4532510520F4423010F00C94AC2BE9
:10575000FB011082CB010895BB274A3031F4992315
:1057600022F4BDE2909581959F4F0C94B82BBB27F6
:10577000FB015527AA27880F991FAA1FA41710F00D
:10578000A41B83955051B9F7A05DAA3308F0A95D19
:10579000A193009779F7B111B1931192CB010C94B9
:1057A000D12BDC01FC01672F71917723E1F7329750
:1057B00004C07C916D9370836291AE17BF07C8F3EC
:0657C0000895F894FFCFEC
:1057C6000AFA0000006124200046756E6374696F52
:1057D6006E20636F7069656420746F2052414D00BE
:1057E600203078004F4E00583A2000593A200044A5
:1057F6006F6E652E2E2E004E6F7420736176656473
:1058060000536176696E672E2E2E005361766564AD
:02581600000090
:00000001FF
