:100000000C948B1F0C94AC1F0C94AC1F0C94AC1F65
:100010000C94AC1F0C94AC1F0C94AC1F0C94AC1F34
:100020000C94AC1F0C94AC1F0C94AC1F0C94AC1F24
:100030000C94AC1F0C94AC1F0C94AC1F0C94AC1F14
:100040000C94AC1F0C94AC1F0C94AC1F0C94AC1F04
:100050000C94AC1F0C94AC1F0C94AC1F0C94AC1FF4
:100060000C94AC1F0C94AC1F0C94AC1F0C94AC1FE4
:100070000C94AC1F0C94AC1F0C94AC1F0C94AC1FD4
:100080000C94AC1F0C94AC1F0C94AC1F0C94AC1FC4
:100090000C94AC1F0C94AC1F0C94AC1F0C94AC1FB4
:1000A0000C94AC1F0C94AC1F0C94AC1F0C94AC1FA4
:1000B0000C94AC1F0C94AC1F0C94AC1F0C94AC1F94
:1000C0000C94AC1F0C94AC1F0C94AC1F0C94AC1F84
:1000D0000C94AC1F0C94AC1F0C94AC1F0C94AC1F74
:1000E0000C94AC1F0C94AC1F0C94AC1F0C94AC1F64
:1000F0000C94AC1F0C94AC1F0C94AC1F0C94AC1F54
:100100000C94AC1F0C94AC1F0C94AC1F0C94AC1F43
:100110000C94AC1F0C94AC1F0C94AC1F0C94AC1F33
:100120000C94AC1F0C94AC1F0C94AC1F0C94AC1F23
:100130000C94AC1F0C94AC1F0C94AC1F0C94AC1F13
:100140000C94AC1F0C94AC1F0C94AC1F0C94AC1F03
:100150000C94AC1F0C94AC1F0C94AC1F0C94AC1FF3
:100160000C94AC1F0C94AC1F0C94AC1F0C94AC1FE3
:100170000C94AC1F0C94AC1F0C94AC1F0C94AC1FD3
:100180000C94AC1F0C94AC1F0C94AC1F0C94AC1FC3
:100190000C94AC1F0C94AC1F0C94AC1F0C94AC1FB3
:1001A0000C94AC1F0C94AC1F0C94AC1F0C94AC1FA3
:1001B0000C94AC1F0C94AC1F0C94AC1F0C94AC1F93
:1001C0000C94AC1F0C94AC1F0C94AC1F0C94AC1F83
:1001D0000C94AC1F0C94AC1F0C94AC1F0C94AC1F73
:1001E0000C94AC1F0C94AC1F0C94AC1F0C94AC1F63
:1001F0000C94AC1F0C94AC1F0C94AC1F0C94C03727
:100200000C94A2370C9461410C9496370C94A5423F
:100210000C94A8370C94AE370C9453640C94B137FB
:100220000C94DD370C94C3370C94BA370C94833F8D
:100230000C949F370C94D7370C94D4370C94AB376D
:100240000C94E3370C945E420C94B4370C94E6376C
:100250000C94A5370C9425630C94F83D0C94BD3791
:100260000C94DA370C94E0370C94B7370C9486373B
:100270000C9499370C949C370C94794420202020BE
:10028000202020202020202020202020202020206E
:10029000202020202020202020202020202000207E
:1002A0006E6F74002064657465637465640A00731E
:1002B0006C6F7420005344206361726420726F6F0E
:1002C0007420766F6C756D6520696E666F726D61F6
:1002D00074696F6E203A20002020202020202020EA
:1002E000202020202020202020202020202020200E
:1002F0002020546F74616C203A20002020202020A0
:1003000020202020202020202020436865636B6966
:100310006E672053442063617264203A00202020DD
:10032000436865636B696E672065787465726E619A
:100330006C2073657269616C2052414D203A200037
:10034000202020202020202020202020202020438A
:100350006865636B696E67204D43552052414D209F
:100360003A20006364205B6469725D203A20656E08
:100370007465722064697220207C20206364203AB6
:1003800020676F207570206F6E65206C6576656CD8
:100390000A0055502F444F574E3A207363726F6CCA
:1003A0006C206F757470757420204C4546542F5224
:1003B000494748543A206D6F766520637572736FB4
:1003C000720A004275696C742D696E20636F6D6DE1
:1003D000616E64733A20636C6561722C206563689A
:1003E0006F2C2068656C702C206C732C2063640A61
:1003F0000077697368202D2057697A6172642053F1
:1004000068656C6C0A004D04F83D4804833F430462
:100410005E42400461413D0479443604A5422F0404
:1004200025632A0453640000000074657874006238
:1004300069746D6170006D656D63686B0063640065
:100440006C730068656C70006563686F00636C6551
:1004500061720063643A206572726F720A006364AD
:100460003A206D6178206469726563746F727920D7
:10047000646570746820726561636865640A00630E
:10048000643A206E6F742061206469726563746FD2
:1004900072793A200063643A206E6F207375636846
:1004A000206469726563746F72793A200063643AFC
:1004B000206E6F20534420636172640A0028656DCA
:1004C000707479290A006C733A206572726F722019
:1004D00072656164696E67206469726563746F72C6
:1004E000790A006C733A206E6F2053442063617266
:1004F000640A003A20636F6D6D616E64206E6F74E4
:1005000020666F756E640A00446F6E652E2E2E0A8B
:1005100000200A00200A0041746D656C2041547867
:100520006D656761313238413355204020333220C8
:100530004D687A0A00200A00232323232323232340
:10054000232323232323232323232323232323237B
:10055000232323232323232323232323232323236B
:100560000A002320202020202020202020202020BE
:10057000202020202020202020202020202020207B
:10058000202020202020202020230A00232020209B
:1005900020202057495348205B2057697A617264B4
:1005A000205368656C6C205D2076312E3020202031
:1005B000202020230A00232020202020202020206B
:1005C000202020202020202020202020202020202B
:1005D00020202020202020202020202020230A004E
:1005E00023232323232323232323232323232323DB
:1005F00023232323232323232323232323232323CB
:1006000023232323232323230A000A007769736803
:1006100000000000000000000000000000000000DA
:100620000000000000000000000000F0030C0C02BD
:10063000103211312201223122321102100C0CF041
:10064000030000F003FC0FFE1FCE1ECF3DFF3DCF89
:100650003DCE1EFE1FFC0FF00300000000F000F86E
:1006600001F803F007E00FF007F803F801F00000CD
:1006700000000000008000C001E003F007F80FF068
:1006800007E003C0018000000000008003C007C035
:1006900007B813FC1BFC1FFC1BB813C007C0078066
:1006A00003000000008003C007E017F01BFC1FF0F0
:1006B0001BE017C0078003000000000000000000DE
:1006C000000000000000000000000000000000002A
:1006D000000000000000000000000000000000001A
:1006E000000000000000000000000000000000000A
:1006F00000000000000000000000000000000000FA
:1007000000000000000000000000000000000000E9
:1007100000000000000000000000008003C007602F
:100720000C20082008600CC807A8031800780000F7
:10073000000000000000007000F8088C09043F046D
:100740003F8C09F808700000000000000000000065
:100750000000000000000000000000000000000099
:100760000000000006000F000FFF0733006630CCCA
:10077000789879F03F0000000000008000C809F080
:10078000073006180C1E3C180C3006F007C809800C
:1007900000000000000000FC1FF80FF007E003C09D
:1007A0000180000000000000000000000000008048
:1007B00000C001E003F007F80FFC1F00000000007C
:1007C000000000000000001004180C1C1CFE3F1C60
:1007D0001C180C100400000000000000000000FEC7
:1007E00037FE3700000000FE37FE37000000000033
:1007F00000000038007C00C6008200FE3FFE3F0281
:1008000000FE3FFE3F0200000000000000DC08FE8A
:10081000192211221122112211E61FC40E0000001C
:1008200000000000000000003800380038003800E8
:1008300038003800380038000000000000000008D0
:10084000440C4C0E5CFF7F0E5C0C4C084400000016
:1008500000000000000000100018001C00FE3F1CFB
:100860000018001000000000000000000000000060
:1008700004000C001CFE3F001C000C0004000000E3
:10088000000000000080008000800080008000F0F8
:1008900007E003C00180000000000000008000C0ED
:1008A00001E003F0078000800080008000800000ED
:1008B000000000003F002000200020002000200059
:1008C00020002000200020000000008000C001E087
:1008D00003F007800080008000F007E003C0018083
:1008E0000000000004000600078007C007E007C002
:1008F000078007000700060004000020006000E0F9
:1009000000E001E003E007E003E001E00060002018
:1009100000000000000000000000000000000000D7
:1009200000000000000000000000000000000000C7
:10093000007C00FF33FF337C00000000000000005B
:10094000000000000000003C003C00000000003CF3
:10095000003C0000000000000000000002101E909B
:100960001FF0037E021E1E901FF0037E021E001069
:1009700000000000007804FC0CCC0CFF3FFF3FCCD3
:100980000CCC0F8807000000000000003038383819
:100990001C380E00078003C001E038703838381C5E
:1009A0000000000000001FB83FFC31C621E2373EC6
:1009B0001E1C1C0036002200000000000000000089
:1009C0000027003F001F00000000000000000000A2
:1009D00000000000000000F003FC0FFE1F073801BC
:1009E00020012000000000000000000000000001C5
:1009F0002001200738FE1FFC0FF00300000000005C
:100A00000000000000980CB80EE003F80FF80FE0AB
:100A100003B80E980C000000000000000080018068
:100A2000018001F00FF00F800180018001000000C3
:100A300000000000000000000000B800F80078008E
:100A400000000000000000000000000000800180A5
:100A5000018001800180018001800180010000008F
:100A600000000000000000000000380038003800DE
:100A700000000000000000000000000018001C0042
:100A80000E00078003C001E000700038001C000E5B
:100A9000000000F807FE1F061E03338331C33063D6
:100AA0003033301E18FE1FF8070000000000000C55
:100AB000300C300E30FF3FFF3F0030003000300080
:100AC0000000001C301E38073C033E03378333C34D
:100AD00031E33077303E301C3000000C0C0E1C0728
:100AE00038C330C330C330C330C330E7397E1F3C16
:100AF0000E0000C003E003700338031C030E03075D
:100B000003FF3FFF3F0003000300003F0C7F1C6317
:100B10003863306330633063306330E338C31F833E
:100B20000F0000C00FF01FF839DC30CE30C730C3E3
:100B300030C330C339801F000F00000300030003DF
:100B4000000330033C030FC303F3003F000F000317
:100B5000000000000FBC1FFE39E730C330C330C3B4
:100B600030E730FE39BC1F000F00003C007E00E77C
:100B700030C330C330C338C31CC30EE707FE03FCC9
:100B8000000000000000000000701C701C701C00C1
:100B90000000000000000000000000000000000055
:100BA00000709C70FC707C000000000000000000E1
:100BB0000000000000C000E001F00338071C0E0E2A
:100BC0001C073803300000000000000000600660D1
:100BD0000660066006600660066006600660060045
:100BE0000000000000033007380E1C1C0E3807F010
:100BF00003E001C0000000000000001C001E000710
:100C00000003008337C337E30077003E001C000079
:100C1000000000F80FFE1F0718F333FB371B36FBED
:100C200037FB370736FE03F80100000038003FE0CD
:100C300007FC061F061F06FC06E007003F00380001
:100C4000000000FF3FFF3FC330C330C330C330E775
:100C500030FE39BC1F000F00000000F003FC0F0E37
:100C60001C073803300330033007380E1C0C0C000F
:100C7000000000FF3FFF3F03300330033003300725
:100C8000380E1CFC0FF00300000000FF3FFF3FC3C5
:100C900030C330C330C330C330C3300330033000FF
:100CA000000000FF3FFF3FC300C300C300C300C3F9
:100CB00000C3000300030000000000F003FC0F0E5F
:100CC0001C07380330C330C330C330C73FC63F00B2
:100CD000000000FF3FFF3FC000C000C000C000C0D8
:100CE00000C000FF3FFF3F000000000000000003C5
:100CF000300330FF3FFF3F033003300000000000AF
:100D0000000000000E001E003800300030003000EF
:100D1000300038FF1FFF0700000000FF3FFF3FC00B
:100D200000E001F00338071C0E0E1C0738033000EA
:100D3000000000FF3FFF3F00300030003000300077
:100D40003000300030003000000000FF3FFF3F1E49
:100D5000007800E001E00178001E00FF3FFF3F0047
:100D6000000000FF3FFF3F0E003800F000C003000E
:100D700007001CFF3FFF3F00000000F003FC0F0EC8
:100D80001C07380330033007380E1CFC0FF003003B
:100D9000000000FF3FFF3F83018301830183018344
:100DA00001C701FE007C0000000000F003FC0F0EF4
:100DB0001C073803300336073E0E1CFC3FF033009F
:100DC000000000FF3FFF3F8301830183038307830C
:100DD0000FC71DFE387C30000000003C0C7E1CE775
:100DE00038C330C330C330C330C7398E1F0C0F0037
:100DF0000000000000030003000300FF3FFF3F036B
:100E00000003000300000000000000FF07FF1F00B8
:100E10003800300030003000300038FF1FFF07007E
:100E200000000007003F00F801C00F003E003EC078
:100E30000FF8013F00070000000000FF3FFF3F00E8
:100E40001C0006800380030006001CFF3FFF3F00DC
:100E500000000003300F3C1C0E3003E001E00130C5
:100E6000031C0E0F3C03300000000003000F003C89
:100E700000F000C03FC03FF0003C000F0003000046
:100E80000000000330033C033E0333C331E330333F
:100E9000301F300F3003300000000000000000FF62
:100EA0003FFF3F03300330033003300000000000F9
:100EB0000000000E001C0038007000E000C001803F
:100EC000030007000E001C001800000000000003D3
:100ED00030033003300330FF3FFF3F0000000000CD
:100EE0000000006000700038001C000E0007000EBB
:100EF000001C00380070006000000000C000C0004E
:100F0000C000C000C000C000C000C000C000C000E1
:100F1000C0000000000000000000003E007E004E07
:100F20000000000000000000000000001C403E60C7
:100F30003360336033603360336033E03FC03F0081
:100F4000000000FF3FFF3FC0306030603060306025
:100F500030E038C01F800F00000000800FC01FE08D
:100F60003860306030603060306030C01880080019
:100F7000000000800FC01FE038603060306030E05B
:100F800030C030FF3FFF3F00000000800FC01FE077
:100F90003B60336033603360336033C013800100E3
:100FA000000000C000C000FC3FFE3FC700C300C3FC
:100FB00000030000000000000000008003C0C7E044
:100FC000CE60CC60CC60CC60CC60E6E07FE03F00DF
:100FD000000000FF3FFF3FC000600060006000E0D5
:100FE00000C03F803F000000000000000000000043
:100FF000306030EC3FEC3F0030003000000000007B
:1010000000000000000000006000E000C060C0ECD4
:10101000FFEC7F00000000000000000000FF3FFF29
:101020003F00038007C00FE01C6038003000000064
:101030000000000000000000300330FF3FFF3F00D1
:101040003000300000000000000000E03FC03FE042
:1010500000E000C03FC03FE000E000C03F803F0034
:101060000000000000E03FE03F60006000600060C2
:1010700000E000C03F803F00000000800FC01FE084
:10108000386030603060306030E038C01F800F0062
:10109000000000E0FFE0FF600C601860186018605E
:1010A00018E01CC00F8007000000008007C00FE0A0
:1010B0001C6018601860186018600CE0FFE0FF000A
:1010C0000000000000E03FE03FC000600060006002
:1010D000006000E000C00000000000C011E03360CC
:1010E00033603360336033603F401E000000000017
:1010F00000000060006000FE1FFE3F603060306056
:101100003000300000000000000000E00FE01F0091
:101110003800300030003000300018E03FE03F0081
:101120000000006000E0018007001E003800380069
:101130001E8007E001600000000000E007E01F00E3
:1011400038001CE00FE00F001C0038E01FE0070033
:101150000000006030E038C01D800F0007800FC025
:101160001DE038603000000000000000006000E07A
:101170008180E7007E001E8007E001600000000023
:1011800000000060306038603C60366033E031E081
:10119000306030203000000000000000008000C0FF
:1011A00001FC1F7E3F0770036003600360000000C6
:1011B0000000000000000000000000BF3FBF3F0033
:1011C00000000000000000000000000000036003B9
:1011D00060036007707E3FFC1FC0018000000000BC
:1011E000000000100018000C0004000C0018001093
:1011F0000018000C00040000000000000F800FC069
:101200000C600C300C300C600CC00C800F000F0018
:10121000000000F001FC070ECE07DC03F803F80322
:1012200018071C1E0E1C0600000000E00FE01F0C3B
:10123000380C30003000300C300C18E03FE03F003C
:10124000000000800FC01FE03B603368336C3366E2
:10125000336233C013800300000000001C403E686E
:10126000336C33663366336C336833E03FC03F0022
:10127000000000001C403E6C336C33603360336C04
:10128000336C33E03FC03F00000000001C403E6074
:1012900033623366336C3368336033E03FC03F0002
:1012A000000000001C403E603364336A336A3364DC
:1012B000336033E03FC03F00000000800FC01FE0FC
:1012C000B860B060F060F06030E038C018800800AE
:1012D000000000800FC01FE8336C33663366336C48
:1012E000336833C013800300000000800FC01FEC80
:1012F000336C33603360336C336C33C01380030062
:10130000000000800FC01FE033623366336C336827
:10131000336033C013800300000000000000000CA5
:10132000306C30E03FEC3F0C30003000000000003B
:101330000000000000000008306C30E63FE63F0C83
:101340003008300000000000000000000000000035
:10135000306230E63FEC3F08300030000000000013
:101360000000000038003E830FE30D780C780CE39A
:101370000D830F003E0038000000000038003E8062
:101380000FE20D750C750CE20D800F003E00380069
:10139000000000F83FF83F983198319C319E319B16
:1013A0003199311830183000000000801CC03E40D8
:1013B000224022C01F803F40224022C033801100C3
:1013C000000000003C803FF0077C061F06FF3FFF47
:1013D0003FC330C330033000000000800FC01FE85F
:1013E000386C30663066306C30E838C01F800F00D3
:1013F000000000800FC01FEC386C30603060306C33
:1014000030EC38C01F800F00000000800FC01FE0CC
:1014100038623066306C306830E038C01F800F00B2
:10142000000000E00FE01F08380C30063006300CDA
:10143000300818E03FE03F00000000E00FE01F0030
:1014400038023006300C3008300018E03FE03F0032
:1014500000000000006000EC818CE7007E001E8C24
:1014600007EC016000000000000000E00FF01F3BEF
:10147000381B30183018301B303B38F01FE00F009D
:10148000000000E00FE01F0C380C30003000300C82
:10149000300C18E03FE03F00000000802FC03FE02C
:1014A00018603C60366033E031C038E01FA00F00A8
:1014B00000000000000018801CF81FFC0B8C188C2A
:1014C000181C181818000800000000F02FF83F1C26
:1014D000180C3E8C37EC317C301838FC1FF40F00B0
:1014E0000000000000100430066003C001C001606D
:1014F00003300610040000000000000000003080EF
:10150000708060FE7FFF3F830087000600000000C0
:10151000000000001C403E603368336C3366336269
:10152000336033E03FC03F000000000000000000D7
:10153000306830EC3FE63F02300030000000000031
:10154000000000800FC01FE03868306C30663062E9
:1015500030E038C01F800F00000000E00FE01F00E7
:101560003808300C30063002300018E03FE03F0011
:101570000000000000E03FE83F6C0064006C006881
:1015800000EC00C43F803F00000000F83FF83F72CD
:1015900000E300C10183030207030EF93FF83F0097
:1015A0000000007000FA06DB06DB06DB06DB06DB6C
:1015B00006DB06FF06FE00000000003C007E06E79A
:1015C00006C306C306C306C306E7067E063C000044
:1015D000000000000E001F803BC031FB307B30005C
:1015E000300038001E000E00000000F007F80F1C4D
:1015F0001CEC1BEC1BAC18EC1B4C1B1C1CF80FF060
:101600000718001800180018001800180018001813
:10161000001800F803F8030000000048007C047C78
:101620000640038001C0006019301D101700120031
:1016300000000048007C047C0640038001C0066076
:10164000073004101F001F00000000000000000011
:1016500000800FF33FF33F800F0000000000000008
:101660000000008000C0016003200200008000C074
:10167000016003200200000000000020026003C09F
:10168000018000000020026003C001800000000013
:101690000055550000AAAA000055550000AAAA004E
:1016A0000055550000AAAA0000AAAA5555AAAA5595
:1016B00055AAAA5555AAAA5555AAAA5555AAAA5532
:1016C00055AAAAFFFF5555FFFFAAAAFFFF5555FFD0
:1016D000FFAAAAFFFF5555FFFF0000000000000011
:1016E000000000FFFFFFFF000000000000000000FE
:1016F0000080018001800180018001FFFFFFFF0069
:1017000000000000000000000000000038003E80E3
:101710000FE40D7E0C7B0CE10D800F003E003800C5
:101720000000000038003E840FE60D7B0C7B0CE6C9
:101730000D840F003E0038000000000038003E809D
:101740000FE10D7B0C7E0CE40D800F003E00380095
:10175000000000F007F80F1C1CCC19EC1B2C1A6CB5
:101760001B4C191C1CF80FF007C006C006FFFEFF3B
:10177000FE0000FFFFFFFF0000000000000000006F
:101780000000000000FFFFFFFF0000FFFFFFFF0061
:10179000000000000000000000C006C006C0FEC03F
:1017A000FEC000C0FFC0FF000000000000000000FD
:1017B00000C006C006FF06FF060006FF07FF070081
:1017C00000000000000000000000000000E003F046
:1017D00007380EFE3FFE3F180C380E3006000000A2
:1017E00000000003000F0A3C0AF00AC03FC03FF0AF
:1017F0000A3C0A0F0A03000000800180018001807A
:1018000001800180FF80FF00000000000000000058
:101810000000000000000000000000FF01FF018048
:1018200001800180018001800180018001800180B0
:10183000018001FF01FF01800180018001800180A2
:10184000018001800180018001800180FF80FF8094
:101850000180018001800180010000000000000083
:10186000000000FFFFFFFF800180018001800180F8
:101870000180018001800180018001800180018060
:101880000180018001800180018001800180018050
:10189000018001FFFFFFFF80018001800180018046
:1018A000010000001C403E68336C3364336C3368C5
:1018B000336C33E43FC03F000000000038003E823C
:1018C0000FE30D790C7B0CE20D830F013E00380015
:1018D0000000000000FF07FF070006FF06FF06C02C
:1018E00006C006C006C006C00600000000C0FFC05B
:1018F000FFC000C0FEC0FEC006C006C006C006C0D5
:1019000006C006C006FF06FF060006FF06FF06C06B
:1019100006C006C006C006C006C006C006C0FEC09F
:10192000FEC000C0FEC0FEC006C006C006C006C0A5
:101930000600000000FFFFFFFF0000FFFEFFFEC0EB
:1019400006C006C006C006C006C006C006C006C067
:1019500006C006C006C006C006C006C006C006C057
:1019600006C006C006FFFEFFFE0000FFFEFFFEC031
:1019700006C006C006C006C0060000F61BFE1F1803
:10198000060C0C0C0C0C0C0C0C1806FE1FF61B00A5
:1019900000000000000000781CFC3ECC338C330CAF
:1019A0003F181E0000000000000000C000FF3FFFC5
:1019B0003FC3300330033007380E1CFC0FF0030028
:1019C000000000F83FF83F9C319E319B319B319ED7
:1019D000319C311830183000000000F83FF83F9B70
:1019E000319B31983198319B319B31183018300040
:1019F000000000F83FF83F99319B319E319C3198AF
:101A0000319831183018300000000000000000004C
:101A10000000007E007E00000000000000000000CA
:101A20000000000000000018301830FC3FFE3F1B93
:101A30003019300000000000000000000000001C11
:101A4000301E30FB3FFB3F1E301C3000000000000A
:101A5000000000000000001B301B30F83FF83F1B67
:101A6000301B3000000000000080018001800180F8
:101A7000018001FF01FF01000000000000000000E4
:101A8000000000000000000000000080FF80FF80D8
:101A9000018001800180018001FFFFFFFFFFFFFF48
:101AA000FFFFFFFFFFFFFFFFFFFFFFFFFFFFFFFF46
:101AB000FF00FF00FF00FF00FF00FF00FF00FF002E
:101AC000FF00FF00FF00FF00FF000000000000001B
:101AD000000000BF3FBF3F0000000000000000000A
:101AE0000000000000000019301B30FE3FFC3F18D2
:101AF000301830000000000000FF00FF00FF00FF72
:101B000000FF00FF00FF00FF00FF00FF00FF00FFDD
:101B1000000000E00FF01F383818301C301E301B5A
:101B2000303938F01FE00F000000000000C0FFE077
:101B3000FF3021102110213033E03FC01E00000093
:101B4000000000E00FF01F3C381E301B301B301E21
:101B5000303C38F01FE00F00000000E00FF01F39AC
:101B6000381B301E301C3018303838F01FE00F00A2
:101B7000000000800FC81FEC3864306C3068306C97
:101B800030E438C01F800F00000000E00FF01F3A63
:101B9000381B3019301B301A303B38F11FE00F0072
:101BA000000000F0FFF0FF000E000C000C000C0025
:101BB00006F00FF00F00000000000000000C30FCE9
:101BC0003FFC3F6C3660066006E007C00300000083
:101BD00000000000000330FF3FFF3F1B36180618CF
:101BE00006F807F003000000000000F807F81F00E7
:101BF0003800300430063003300138F81FF8070091
:101C0000000000F807F81F043806300330033006E0
:101C1000300438F81FF80700000000F807F81F012B
:101C20003803300630043000300038F81FF8070061
:101C300000000000006000E08180E7107E181E8C2C
:101C400007E40160000000000000000800180030F8
:101C5000006000C43FC63F63003100180008000068
:101C600000000000000000000000000C000C000C50
:101C7000000C000000000000000000000000000058
:101C80000004000600030001000000000000000046
:101C900000000000000000C000C000C000C000C084
:101CA00000C000000000000000000000000000C0B4
:101CB00018C018F01BF01BC018C01800000000006E
:101CC00000000000000000C006C006C006C006C03C
:101CD00006C0060000000000000000440054047C20
:101CE0000628038001C00660073004101F001F0093
:101CF00000000038007C00C6008200FE3FFE3F026C
:101D000000FE3FFE3F0200000000000000DC08FE75
:101D1000192211221122112211E61FC40E00000007
:101D20000000000000800180018001B00DB00D8036
:101D30000180018001000000000000000000004060
:101D40000080008000C000C0000000000000000013
:101D5000000000000000001E003F00330033003F81
:101D6000001E00000000000000000000008001C014
:101D7000038001000000008001C00380010000001A
:101D800000000000000000000000008001C003808F
:101D90000100000000000000000000000002001F21
:101DA000001F000000000000000000000000000014
:101DB00000000000001100150015001F000A0000BF
:101DC0000000000000000000000000000019001DDD
:101DD00000150017001200000000000000000000C5
:101DE000000000000000000000F003F003F003F02A
:101DF00003000000000000000000000000000000E0
:101E000000000000000000000000000000000000D2
:101E1000000C1000000000000000000000000000A6
:101E200000000000000000000000000000000000B2
:101E300000000000000000000000000000000000A2
:101E40000000000000FE1B00000000000000000079
:101E500000000000001E000000000000001E000046
:101E6000000000000000012019A00778012619A039
:101E7000077801260120010000000000001C182640
:101E8000104210FF3F8211020F000000001C1022C0
:101E900008220422039C00400E3011081104110294
:101EA0000E000780085C106210A21132131C1C0087
:101EB000180016800100000000000000001E000055
:101EC000000000000000000000000000000000E032
:101ED0000718180C300420024002400000000002E5
:101EE00040024004200C301818E0070000000000F9
:101EF00000000008001800F0004E00F00018000874
:101F000000000000000002000200020002E01F00CA
:101F100002000200020002000000000000000000B9
:101F200098007800000000000000000000000000A1
:101F3000000001000100010001000100010000009B
:101F40000000000000000000180018000000000061
:101F50000000000000000000400030000C0003C042
:101F60000030000C00020000000000F0030C0C0226
:101F700010021002100C0CF003000000000000041E
:101F80001004100410FE1F001000100010000000CC
:101F90000000000618021402120211C2103C1000C8
:101FA0000000000000000000000210421042104239
:101FB00010BC0F0000000000000003C00220021847
:101FC000020402FE1F0002000200000000000000E8
:101FD000003E10221022104208820700000000007C
:101FE000000000F0074C0822102210221042088046
:101FF00007000000000000020002180207C20032C1
:10200000000A0006000000000000001C0FA21042A1
:10201000104210A210A2091C060000000000007867
:10202000008410021102110211840CF80300000058
:1020300000000000000000601860180000000000B0
:1020400000000000000000000000006098607800C0
:10205000000000000000000000000000000003007D
:102060000380048004400840082010000000008025
:1020700004800480048004800480048004800400C0
:102080000000002010400840088004800400030085
:10209000030000000000000E000200021B8200424C
:1020A0000026001C0000000000F003180C0418E2D9
:1020B0001312140A168A1BFC070004000400100007
:1020C0000E8003700218023002C0020003000C00F0
:1020D000100000F81F8810881088108810481130F0
:1020E0000E00000000C003300C1008081008100893
:1020F0001008101810000000000000F81F08100859
:1021000010081008101008E007000000000000F898
:102110001F0811081108110811081108100000000B
:10212000000000F81F080108010801080108010863
:1021300000000000000000C003300C100808100868
:102140001008110811181F00000000F81F000100FE
:1021500001000100010001F81F000000000000085C
:102160001008100810F81F081008100810000000D0
:1021700000000000000010081008100810F80F0000
:1021800000000000000000F81F80008001400220D5
:102190000410040808001000000000F81F001000E0
:1021A00010001000100010001000000000F81F3890
:1021B00000E00100070006C0013800F81F00000021
:1021C000000000F81F10006000800100060008F801
:1021D0001F000000000000E00710080810081008A9
:1021E0001008101008E00700000000F81F080108A0
:1021F000010801080188007000000000000000E0F4
:1022000007100808100810081008301048E04700B0
:10221000000000F81F080108010803880470080086
:102220001000000000000070184810881088100886
:10223000110809180E000000000800080008000836
:1022400000F81F080008000800080000000000F85F
:102250000700180010001000100008F80700000028
:102260000008003000C0010006001800180007C078
:1022700000300008001800E003001C000FE000C060
:1022800001000E001CE00318000810100820044094
:10229000028001800140022004100808100800108C
:1022A0000060008000001F80004000200010000837
:1022B0000000000818081408120811881048102897
:1022C0001018100000000000000000FE7F02400215
:1022D000400240024000000000000002000C0030FC
:1022E00000C0000003000C003000400000000002AD
:1022F00040024002400240FE7F000000000000005B
:1023000000000000040003E00038000E00700080B0
:102310000300040000002000200020002000200016
:10232000200020002000200020000000000000000D
:10233000000100020000000000000000000000009A
:102340000C2012201120112009C01F0010000000D5
:10235000000000FE1F4008201020102010600880A0
:102360000700000000000080074008201020102017
:1023700010201020100000000000008007401820EE
:1023800010201020104008FE1F00000000000080F8
:102390000740092011201120112011C01100000058
:1023A00000000020002000FC1F2400220022002248
:1023B000002200000000008007409820902090201C
:1023C000904048E03F000000000000FE1F800040F9
:1023D00000200020002000C01F000000000000209E
:1023E0000020002600E61F000000000000000000A2
:1023F0000000000080208020802680E67F00000012
:1024000000000000000000FE1F00010003800440E7
:10241000044008201000000000000000000200023C
:10242000000200FE1F0000000000000000E01F404E
:102430000020002000C01F400020002000C01F001E
:10244000000000E01FC0004000200020002000C06D
:102450001F0000000000008007400820102010200E
:102460001040088007000000000000E0FF40082046
:10247000102010201060088007000000000000807D
:102480000740182010201020104008E0FF00000036
:102490000000000000E01F8000400020002000E05D
:1024A00000000000000000C01820112011201220A0
:1024B00012200C000000000000000020002000F8A6
:1024C0000F2010201020102010000000000000E05D
:1024D0000F0010001000100008E01F0000000000B6
:1024E000002000C001000600180010000C0003C00E
:1024F0000020000000600080070018000EC001806E
:1025000001000E00188007600000002010400880C5
:10251000040003000380044008201000002080C055
:1025200080008300460038001800060001C000202B
:1025300000000020102018201420122011A010608C
:1025400010201000000000000000010001FC3E020D
:1025500040024002400000000000000000000000B7
:1025600000FE7F00000000000000000000000000EE
:1025700000024002400240FC3E0001000100000059
:1025800000000380008000800000010001000200C4
:1025900002000280010000801FC0102010101020D7
:1025A00010C010801F0000000000000000000000AC
:1025B000000000000000000000000000000000001B
:1025C0000000000000FFCCFFCC0000000000000075
:1025D0000000000000F000F00000000000F000F03B
:1025E00000000000000CC00CC0FFFCFFFC0CC00C85
:1025F000C0FFFCFFFC0CC00CC00C601E703F3033F1
:1026000030FFFCFFFC333033F039E018C06000F0DD
:102610000CF03C60F003C00F003C18F03CC03C00E4
:10262000183CF07FF8C31CC78CCFCCDCEC7878303A
:102630003000FC00CC0000000000004400EC00F87A
:10264000007000000000000000000000000FC03F0C
:10265000F078786018C00CC00C000000000000008A
:1026600000C00CC00C601878783FF00FC00000006C
:10267000000C600EE007C003803FF83FF8038007BE
:10268000C00EE00C6003000300030003003FF03FB6
:10269000F00300030003000300004400EC00F80016
:1026A00070000000000000000000000000030003B4
:1026B0000003000300030003000300030003000302
:1026C000000018003C003C00180000000000000062
:1026D00000000000000000000C003C00F003C00FF0
:1026E000003C00F000C00000003FF07FF8E0FCC1BB
:1026F000CCC38CC70CCE0CFC1C7FF83FF000000054
:1027000000300C700CFFFCFFFC000C000C00000003
:1027100000300C701CE03CC07CC0ECC1CCC38CE72A
:102720000C7E0C3C0C30307038E01CC00CC00CC36C
:102730000CC30CE31C7FF83CF003C007C00EC01CA8
:10274000C038C070C0FFFCFFFC00C000C0FC30FC03
:1027500038CC1CCC0CCC0CCC0CCC0CCE1CC7F8C38D
:10276000F03FF07FF8E31CC30CC30CC30CC30CE3B5
:102770009C71F830F0C000C000C000C000C3FCC7AE
:10278000FCCE00DC00F800F0003CF07FF8E79CC3D2
:102790000CC30CC30CC30CE79C7FF83CF03C007EE0
:1027A00000E70CC30CC31CC338C370E7E07FC03F15
:1027B0008000000000000018603CF03CF018600051
:1027C000000000000000000000000018443CEC3C49
:1027D000F818700000000000000000030007800FE0
:1027E000C01CE038707038E01CC00C00000CC00C3D
:1027F000C00CC00CC00CC00CC00CC00CC00CC00C79
:10280000C00000C00CE01C703838701CE00FC0071E
:10281000800300000030007000E000C000C1ECC385
:10282000ECC300E6007E003C0030F071F8E39CC38E
:102830000CC3FCC3FCC00CE01C7FF83FF03FFC7FE6
:10284000FCE0C0C0C0C0C0C0C0C0C0E0C07FFC3F92
:10285000FCFFFCFFFCC30CC30CC30CC30CC30CE794
:102860009C7FF83CF03FF07FF8E01CC00CC00CC02F
:102870000CC00CE01C70383030FFFCFFFCC00CC0FA
:102880000CC00CC00CC00CE01C7FF83FF0FFFCFF3C
:10289000FCC30CC30CC30CC30CC30CC30CC00CC0D6
:1028A0000CFFFCFFFCC300C300C300C300C300C394
:1028B00000C000C0003FF07FF8E01CC00CC00CC39B
:1028C0000CC30CE31C73F833F0FFFCFFFC030003A4
:1028D000000300030003000300FFFCFFFC000000F6
:1028E00000C00CC00CFFFCFFFCC00CC00C000000C2
:1028F0000000300038C01CC00CC00CC01CFFF8FF2A
:10290000F0C000C000FFFCFFFC078007800FC01C68
:10291000E038707038E01CC00CFFFCFFFC000C00BD
:102920000C000C000C000C000C000C000CFFFCFF59
:10293000FC700038001F001F0038007000FFFCFF13
:10294000FCFFFCFFFC1C000E000700038001C00020
:10295000E0FFFCFFFC3FF07FF8E01CC00CC00CC0A7
:102960000CC00CE01C7FF83FF0FFFCFFFCC300C371
:1029700000C300C300C300E7007E003C003FF07FBF
:10298000F8E01CC00CC0CCC0ECC07CE0387FFC3F41
:10299000ECFFFCFFFCC300C380C380C3C0C3C0E71F
:1029A000707E3C3C1C3C187E1CE70CC30CC30CC363
:1029B0000CC30CC39CE1F860F0C000C000C000C0B4
:1029C00000FFFCFFFCC000C000C000C000FFF0FF23
:1029D000F8001C000C000C000C000C001CFFF8FFA1
:1029E000F0FFC0FFE000700038001C001C00380041
:1029F00070FFE0FFC0FFF0FFF8001C003C00F80093
:102A0000F8003C001CFFF8FFF0F03CF87C1CE00FE5
:102A1000C0078007800FC01CE0F87CF03CFC00FE83
:102A2000000700038001FC01FC03800700FE00FC9E
:102A300000C03CC07CC0ECC1CCC38CC70CCE0CDC4D
:102A40000CF80CF00C00000000FFFCFFFCC00CC0F8
:102A50000CC00C000000000000300030000C000C26
:102A6000000300030000C000C00030003000000080
:102A700000C00CC00CC00CFFFCFFFC0000000000FC
:102A8000000C001C0038007000E000E0007000380E
:102A9000001C000C00000C000C000C000C000C00D2
:102AA0000C000C000C000C000C00000000C000E04A
:102AB0000070003800180000000000000000300620
:102AC000780EFC0CCC0CCC0CCC0CCC0ECC07FC0344
:102AD000F8FFFCFFFC030C030C030C030C030C03BA
:102AE0009C01F800F003F007F80E1C0C0C0C0C0C09
:102AF0000C0C0C0E1C0738033000F001F8039C038B
:102B00000C030C030C030C030CFFFCFFFC03F0078D
:102B1000F80EDC0CCC0CCC0CCC0CCC0EDC07D803A7
:102B200090000003003FFC7FFCE300E300700030F6
:102B300000000000000318079C0FCC0CCC0CCC0C40
:102B4000CC0CCC0CDC0FF807F0FFFCFFFC030003FF
:102B50000003000300038001FC00FC0000000000F3
:102B600000000000001BFC1BFC0000000000000037
:102B700000000000300038001C000C000C001CCFCE
:102B8000F8CFF000000000FFFCFFFC00E001E003D4
:102B9000F007380E1C0C0C000000000000C00CC038
:102BA0000CFFFCFFFC000C000C000000000FFC0FF1
:102BB000FC0E00070003C003C007000E000FFC0F4F
:102BC000FC0FFC0FFC030007000E000C000C000EB5
:102BD0000007FC03FC03F007F80E1C0C0C0C0C0C9B
:102BE0000C0C0C0E1C07F803F00FFC0FFC0CC00CB7
:102BF000C00CC00CC00CC00FC0078003000300074E
:102C0000800FC00CC00CC00CC00CC00CC00FFC0F5F
:102C1000FC0FFC0FFC038007000E000C000C000EE4
:102C200000070003000318079C0FCC0CCC0CCC0C45
:102C3000CC0CCC0CFC0E78063000000C000C00FF15
:102C4000F0FFF80C1C0C1C0C380C3000000FF00FBF
:102C5000F8001C000C000C000C000C001C0FF80FFE
:102C6000F00FC00FE000700038001C001C0038009E
:102C7000700FE00FC00FF00FF8001C001C00F800F0
:102C8000F8001C001C0FF80FF00C0C0E1C0738038A
:102C9000F001E001E003F007380E1C0C0C0C000EF4
:102CA00000070C039C01F801F0038007000E000CE4
:102CB000000C0C0C1C0C3C0C7C0CEC0DCC0F8C0F89
:102CC0000C0E0C0C0C0000030007803FF07CF8E0B9
:102CD0001CC00CC00CC00C0000030C030C3FFC7F9C
:102CE000FCE30CC30CC00CE00C700C300C0000C0FA
:102CF0000CC00CC00CE01C7CF83FF0078003000007
:102D000000C000C000C000C000C000C000C000C0C3
:102D100000C000C000FFFCFFFCFFFCFFFCFFFCFF4D
:102D2000FCFFFCFFFCFFFCFFFC00000000000000BB
:102D30005F00000007000700147F147F14242A7F1F
:102D40002A122313086462364955225000050300F5
:102D500000001C2241000041221C0014083E0814FF
:102D600008083E080800503000000808080808005D
:102D70006060000020100804023E5149453E0042B8
:102D80007F400042615149462141454B31181412A0
:102D90007F1027454545393C4A49493001710905AD
:102DA000033649494936064949291E00363600008E
:102DB00000563600000814224100141414141400A4
:102DC000412214080201510906324979413E7E111F
:102DD00011117E7F494949363E414141227F41419F
:102DE000221C7F494949417F090909013E4149495E
:102DF0007A7F0808087F00417F41002040413F0161
:102E00007F081422417F404040407F020C027F7FB8
:102E10000408107F3E4141413E7F090909063E41B9
:102E200051215E7F09192946464949493101017FEF
:102E300001013F4040403F1F2040201F3F4038409D
:102E40003F6314081463070870080761514945433C
:102E5000007F41410002040810200041417F00042E
:102E6000020102044040404040000102040020549E
:102E70005454787F484444383844444420384444C7
:102E8000487F3854545418087E0901020C5252529B
:102E90003E7F0804047800447D40002040443D000B
:102EA0007F1028440000417F40007C041804787C97
:102EB0000804047838444444387C14141408081472
:102EC00014147C7C080404084854545420043F44DF
:102ED00040203C4040207C1C2040201C3C40304096
:102EE0003C44281028440C5050503C4464544C44FA
:102EF000000836410000007F000000413608001045
:102F00000808100800000000005072657373202745
:102F1000712720746F206578697420746865206655
:102F2000696C65207669657765720046696C652015
:102F30006C6F6164696E6720737563636565640AAD
:102F40000066696C65207265616465723A2072651D
:102F50006164206572726F720A0066696C65207226
:102F600065616465723A2066696C652069732074D6
:102F70006F6F206C6172676520283E3332204B42B0
:102F8000290A0066696C65207265616465723A2081
:102F900066696C65206E6F7420666F756E640A00DA
:102FA00066696C65207265616465723A207573614B
:102FB00067653A2066696C655F7265616465722059
:102FC0003C66696C656E616D653E0A004F6E6C799A
:102FD000203234206269747320424D502073757022
:102FE0006F727465642028666F72206E6F77290A8D
:102FF0000046696C6520666F726D6174206572723F
:103000006F72206F722064617461206D69737369DF
:103010006E670A005468652066696C6520697320D4
:103020006E6F742061206269746D61700A0042697C
:10303000746D617020696E666F206C6F6164656489
:10304000202D3E2073697A65203A20006269746DF4
:1030500061703A206572726F72206F70656E696E72
:10306000672066696C650A006269746D61703A2058
:1030700075736167653A2066696C655F7265616446
:103080006572203C66696C656E616D653E0A00DFA5
:1030900033DD33DB33D833D433CE33B4339D33987D
:1030A00033933390338C338933863381337B337658
:1030B00033723370336E336C33673362335E335A3B
:1030C00033563353334D3348333C332D3325331B81
:1030D000330E33FA32E732D332CD32C432C232C089
:1030E00032BE32BC32BA32B832B632B432B232B098
:1030F00032A5328532133F113F0F3F0C3F083F028C
:103100003FE83ED13ECC3EC73EC43EC03EBD3EBA87
:103110003EB53EAF3EAA3EA63EA43EA23EA03E9B8A
:103120003E963E923E8E3E8A3E783E723E6D3E5DBB
:103130003E4E3E463E3C3E2F3E1B3E083EF43DEE9C
:103140003DE53DE33DE13DDF3DDD3DDB3DD93DD7A7
:103150003DD53DD33DD13DC63DA63D9A3D873D7C05
:103160003D6A3D5F3D333D1F3D093DF33CE23CD8A8
:103170003CCF3CB83C9C3C9A3C873C733C643C4C08
:103180003C453C3E3C373C303C293C223C1F3C1BF0
:103190003C183C153CFD3BC13B863B843B823B805D
:1031A0003B7E3B7C3B7A3B783B703B5E3B513B4FED
:1031B0003B4D3B4B3B2F3B2D3B2B3B293BF73ADF1A
:1031C0003AAE3A783A5C3A533A3B3A123AEF39CC53
:1031D00039A9397839483931391439FF38EB38CAC7
:1031E00038B838A63893388F3887388238703852D4
:1031F00038363826380E38FE37D936BB3696368301
:10320000366A36533637363536333631362C36262F
:103210003621361C3616361036093605360136FB91
:1032200035F635F335F035E635E035D935D735D5D2
:1032300035D335D135CF35CD35CB35C935C735C586
:1032400035C335C135BF35BD35B635AE35A635A02C
:103250003598359035893581356F355C354A35413E
:10326000352E351C3512350435E834C734B534866F
:1032700034753460344B3430342E342C342A3428B2
:1032800034263409344C6F616420636F6D706C6553
:1032900074652E2E2E2046726565206D656D6F72E9
:1032A00079203A20004C6F6164696E672E2E2E00E3
:1032B000200020002000200020002000200020000E
:1032C0002000200053657474696E67730050616953
:1032D0006E7400496E707574206461746120616E53
:1032E000616C797A65720050574D20576176652080
:1032F00047656E657261746F7200492F4F20436F8E
:103300006E74726F6C2050726F6772616D004E52F6
:103310004620776972656C65737300426C756574DD
:103320006F6F746800534420436172640055736585
:103330007220496E74657266616365004652454548
:10334000204D454D4F52590053544F500053544156
:10335000525400424E0050494E004F5554004449CB
:1033600052004544495400506F7274003E003C00C6
:103370005E0053796D004374726C00537061636535
:103380000043415053004F4B003C2D0045736300F8
:103390003078005361766500457869740053617632
:1033A00065206368616E6765730A616E6420657885
:1033B00069743F0044697363617264206368616E7D
:1033C0006765730A616E6420657869743F00436CB9
:1033D0006F736500596573004E6F0058000A004D09
:1033E000656D6F727920616C6C6F636174696F6E6B
:1033F000206572726F720A4E6F7420656E61756718
:1034000068206D656D6F727900497473206F6E204E
:10341000377468204665627265726F2C2041737341
:10342000686F6C650A00200020002000200020004A
:103430004E6F7420656E61756768206672656520E1
:103440006D656D6F72792E2E2E0A004D697373694A
:103450006E672066696C656E616D652E2E2E0A00A2
:103460004469726563746F7279206E6F7420666F41
:10347000756E640A004469726563746F72792065C1
:1034800072726F720A0046415433322066696C656D
:1034900073797374656D206E6F7420617661696CE9
:1034A00061626C65206F6E207468652053442063F0
:1034B0006172640A004E6F2053442063617264207D
:1034C000666F756E640A00446973706C6179206977
:1034D00074656D20636F756E742028646566617510
:1034E0006C742036342920004C696E6520656C654B
:1034F0006D656E7473202864656661756C74203127
:10350000322920004C6573732061646472657373A3
:1035100020002044617461202D3E20004F6B2C2040
:103520006C65747320676F207468656E0A00417261
:103530006520796F7520737572653F20792F6E0A4B
:103540000054797065202D3E20005379736F702CE4
:10355000206D616B696E67202D3E200056616C7591
:1035600065206E6F7420646566696E65640A005438
:10357000797065206E6F7420646566696E65640A93
:103580000020444543313620002044454338200084
:1035900020434F4C4F52200020464C4F41542000B6
:1035A0002042494E20002048455833322000204810
:1035B000455831362000204845583820002000204A
:1035C00000200020002000200020002000200020FB
:1035D0000020002000200020006269746D617000EE
:1035E0006672656164006A69776F6E626461790012
:1035F0006364006C730065786974007379736F702D
:103600000046415400636C730073746174757300F9
:1036100067616D6D610073746F726500636F6E66D4
:10362000006C657373007061696E7400677569780A
:10363000002000200020005379736F702C207570DB
:10364000646174696E672073657474696E67202D98
:103650003E200053657474696E6720726561646909
:103660006E67206572726F720A0053657474696EBA
:103670006720646174612074797065206572726F6F
:10368000720A0053657474696E67206E6F742066E9
:103690006F756E640A004D697373696E672070619F
:1036A00072616D65746572202D6E20736574746926
:1036B0006E67206E756D6265720A004D697373697D
:1036C0006E6720706172616D65746572202D612076
:1036D000616464726573730A00636F6E6620707252
:1036E0006F6772616D2068656C700A0A312E205414
:1036F0006F207265616420612073657474696E6700
:103700002063616C6C0A636F6E66202D61205B61C3
:103710006464725D202D6E205B6E756D6265725DF6
:103720000A0A322E20546F2075706461746520611E
:103730002073657474696E672063616C6C0A636FD3
:103740006E66202D61205B616464725D202D6E20A9
:103750005B6E756D6265725D202D76205B6E6577A0
:103760002076616C5D0A0A332E20546F20637265E7
:1037700061746520612073657474696E672063618C
:103780006C6C0A636F6E66202D61205B61646472ED
:103790005D202D6E205B6E756D6265725D202D6DF6
:1037A000205B63617074696F6E5D202D76205B769F
:1037B000616C5D202D74205B747970655D0A0A343C
:1037C0002E20496620796F7520646F6E74206B6EB1
:1037D0006F77207768617420746865206675636B05
:1037E00020746F20646F2063616C6C0A636F6E6677
:1037F000202D3F0A0A5468616E6B730A0A005365F4
:103800007474696E67206E756D6265722000536511
:103810007474696E67732073746172742061646478
:103820007265737320004D656D6F727920757064D9
:10383000617465640A004D697373696E6720706115
:1038400072616D65746572202D762076616C756588
:103850000A004D697373696E6720706172616D65EE
:10386000746572202D6120616464726573730A004F
:103870004461746120746F207772697465202D3EF5
:10388000200052414D2000454550524F4D200049E7
:103890004F20004164647265737320706F696E74A9
:1038A0007320746F200053746F72652061646472BA
:1038B000657373202D3E20004E6565642060435281
:1038C0007379736F7060434E0A00436F6E736F6C51
:1038D0006520627566666572207573656420286967
:1038E0006E6465785F6229203A2000436F6E736FC3
:1038F0006C65206D617820636F6C73203A20004303
:103900006F6E736F6C65206D6178206C696E657386
:10391000203A2000436F6E736F6C6520696E70757E
:1039200074206275666665722073697A65203A2034
:1039300000436F6E736F6C652062756666657220FA
:1039400073697A65203A2000546F75636820637547
:1039500072736F722063616C6962726174696F6EF9
:1039600020592073657420746F202D3420286465DD
:103970006661756C74290A00546F756368206375FD
:1039800072736F722063616C6962726174696F6EC9
:1039900020582073657420746F202D3234202864E1
:1039A000656661756C74290A00436F6E736F6C6590
:1039B00020546578742054797065207365742031C3
:1039C000202864656661756C74290A00436F6E7304
:1039D0006F6C65205465787420436F6C6F72207330
:1039E000657420746F2064656661756C740A0043A9
:1039F0006F6E736F6C65204261636B20436F6C6FF9
:103A0000722073657420746F2064656661756C74D0
:103A10000A00436F6E736F6C65204B65797061644B
:103A20002053697A652073657420746F20333020C9
:103A30002864656661756C74290A004572726F723C
:103A40002072656164696E672073657474696E675E
:103A50003A20002042797465730A0000436F6E7348
:103A60006F6C652062756666657220616C6C6F6351
:103A700061746564203A2000436F6E736F6C65203B
:103A8000696E707574206275666665722073697AF6
:103A9000652073657420746F203132382062797428
:103AA0006573202864656661756C74290A00436F2C
:103AB0006E736F6C65206275666665722073697AD5
:103AC000652073657420746F203130323420627940
:103AD000746573202864656661756C74290A0045F5
:103AE00072726F722072656164696E6720736574AB
:103AF00074696E673A0A0041544D454C2041547830
:103B00006D656761313238413355204020333220B2
:103B10004D687A0A0A6E496E67656E205368656C57
:103B20006C2056312E300A0A002000200020004967
:103B300074656D20310A4974656D20320A497465D7
:103B40006D20330A4974656D203400200020002068
:103B500000436F6D6D616E64206C696E6500477225
:103B6000617068696320696E74657266616365007F
:103B700057656C636F6D65002000200020002000F9
:103B80002000200020004D656D6F727920616C6C03
:103B90006F636174696F6E206572726F723A20652F
:103BA0006D657267656E6379206275666665722001
:103BB00073697A65203D2033322042797465730A37
:103BC000004D656D6F727920616C6C6F6361746913
:103BD0006F6E206572726F723A20656D65726765EF
:103BE0006E6379206275666665722073697A6520F6
:103BF0003D203235362042797465730A00414443D2
:103C000020696E707574206461746120616E616CEE
:103C1000797A657200424E003062006B487A004843
:103C20007A00506F7274204600506F727420450005
:103C3000506F7274204400506F7274204300506FB4
:103C40007274204200506F72742041004D617820E0
:103C5000647574792076616C7565206973203130E4
:103C600030202500496E7075742050574D206475C2
:103C7000747900496E7075742050574D20667265D6
:103C80007175656E637900506172616D65746572FE
:103C900073206E6F74207365740020004B6565702F
:103CA000206F7574707574204849474820616674A8
:103CB00065722053544F500044697361626C6520F3
:103CC0004449522061667465722053544F50004439
:103CD000757479205B255D004672657175656E634C
:103CE0007900456C656D656E7420636F756E742028
:103CF0003A20004F555420777269746520646973C7
:103D000061626C65642E2E2E0044445220777269E5
:103D100074652064697361626C65642E2E2E005098
:103D2000494E20697320726561642D6F6E6C792E27
:103D30002E2E0041726520796F7520737572652093
:103D4000796F752077616E740A746F206D6F646986
:103D5000667920414141206269742042203F00453C
:103D60006E61626C65204F5554005344207374613A
:103D7000747573206368616E67656400456E616287
:103D80006C6520444952004564697420504F525478
:103D900020502073746174757300444952204F554C
:103DA000542050494E004C6F616420636F6D706CFD
:103DB0006574652E2E2E2046726565206D656D6FCB
:103DC0007279203A20004C6F6164696E672E2E2E46
:103DD00000200020002000200020002000200020E3
:103DE000002000200053657474696E677300506191
:103DF000696E7400496E707574206461746120612D
:103E00006E616C797A65720050574D205761766506
:103E10002047656E657261746F7200492F4F2043B1
:103E20006F6E74726F6C2050726F6772616D004EAE
:103E3000524620776972656C65737300426C7565D4
:103E4000746F6F746800534420436172640055734B
:103E5000657220496E7465726661636500465245FD
:103E6000452052414D204D454D4F52590053544F1E
:103E700050005354415254004652454520464C414F
:103E80005348204D454D4F52590050494E004F5513
:103E90005400444952004544495400506F72740024
:103EA0003E003C005E0053796D004374726C005319
:103EB000706163650043415053004F4B003C2D003F
:103EC0004573630030780053617665004578697406
:103ED0000053617665206368616E6765730A616E81
:103EE0006420657869743F0044697363617264207B
:103EF0006368616E6765730A616E642065786974D2
:103F00003F00436C6F736500596573004E6F005836
:103F1000000A0020000011241FBECFEFCDBFDFE359
:103F2000DEBF00E00CBF14E2A0E0B0E2ECE2FCED8A
:103F300000E00BBF02C007900D92AA33B107D9F77A
:103F400029E2AAE3B4E201C01D92AE37B207E1F75D
:103F50000E94AC690C94FC6D0C9400000E94144EFD
:103F60002FEF87EA91E6215080409040E1F700C0B2
:103F700000000895CF92DF92EF92FF92A091552416
:103F8000B0915624C0906124D0906224E0906324C4
:103F9000F09064249B01AC01225031094109510980
:103FA0000E946B6C6C0D7D1D8E1D9F1DFF90EF9010
:103FB000DF90CF9008956F927F928F929F92AF92F1
:103FC000BF92CF92DF92EF92FF920F931F93CF9306
:103FD000DF93742ED22FC32F409153245091542439
:103FE0006B017C0182E0CC0CDD1CEE1CFF1C8A9571
:103FF000D1F7209157243091582480904F249090ED
:104000005024A0905124B0905224840E951EA11CDF
:10401000B11C40E050E0C701B6010E942B6C820E3B
:10402000931EA41EB51E209157243091582440E0C1
:1040300050E0C701B6010E942B6C6B017C019AE035
:10404000692EC501B4010E94B532811511F06A9440
:10405000C1F7F601EF57FB4D711016C080819181B9
:10406000A281B381BC01CD019F70DF91CF911F91DF
:104070000F91FF90EF90DF90CF90BF90AF909F9007
:104080008F907F906F90089500831183D283C383B4
:10409000C501B4010E940D3360E070E0CB01E5CFB3
:1040A000CF92DF92EF92FF92CF93DF93C82FD62F5C
:1040B00069017A0180914F2490915024A09151245C
:1040C000B0915224BC01CD016F5F7F4F8F4F9F4F46
:1040D0000E94B5328091812490918224A091832402
:1040E000B091842482359245A146B14409F050C074
:1040F0008091652690916626A0916726B0916826EA
:1041000082379247A144B14609F042C080917D2692
:1041100090917E26A0917F26B09180260097A5459C
:10412000BA4AB1F5D1111AC0C13079F4609169264B
:1041300070916A2680916B2690916C26DF91CF91C9
:10414000FF90EF90DF90CF90089560916D26709171
:104150006E2680916F2690917026F0CFC130E1F4E9
:10416000C0926926D0926A26E0926B26F0926C2665
:1041700080914F2490915024A0915124B0915224C9
:10418000BC01CD016F5F7F4F8F4F9F4F0E940D335A
:104190006FEF7FEFCB01D2CFC0926D26D0926E260B
:1041A000E0926F26F0927026E3CFEF92FF920F938A
:1041B0001F93CF93DF9310924F24109250241092AC
:1041C00051241092522460E070E0CB010E94B5327D
:1041D000809181248D7F893E09F08EC080918C244E
:1041E00090918D24809357249093582480918E240D
:1041F00090E08093552490935624E0918F24F09181
:104200009024E0935324F09354248091AD24909112
:10421000AE24A091AF24B091B02480935D249093FC
:104220005E24A0935F24B0936024C0915324D09166
:104230005424A09191242091A5243091A62440914A
:10424000A7245091A824B0E00E946B6CAB01BC0184
:1042500080919D2490919E24A0919F24B091A024B0
:104260008C0F9D1FA11DB11D840F951FA61FB71F89
:104270008093612490936224A0936324B093642478
:1042800020915524309156248091A1249091A2240C
:10429000A091A324B091A4248E1B9F0BA109B10966
:1042A0007C018D01E41AF50A060B170BC801B70152
:1042B00040E050E00E942B6C2093592430935A2404
:1042C00040935B2450935C2420E030E0A90160E03F
:1042D00081E00E9450200091592410915A2420918D
:1042E0005B2430915C24061717072807390758F11B
:1042F00081E080933E2429C080917F269091802682
:1043000085359A4A41F081E0DF91CF911F910F915D
:10431000FF90EF9008956091472670914826809114
:10432000492690914A2660934F247093502480939D
:104330005124909352240E94B532809181248D7F24
:10434000893E09F74BCF10923E2480E0DDCF0E94DA
:104350001C328091992687FD0DC010926D24109219
:104360006E2410926F241092702483E08093652451
:1043700080E008958091692490916A24A0916B2433
:10438000B0916C2480936D2490936E24A0936F243D
:10439000B093702481E008954F925F926F927F9264
:1043A0008F929F92AF92BF92CF92DF92EF92FF9245
:1043B0000F931F93CF93DF93CDB7DEB72B97CDBF6E
:1043C000DEBF5C018091992687FF6BC0C0906D2491
:1043D000D0906E24E0906F24F0907024C114D1042A
:1043E000E104F104F1F4C0905D24D0905E24E090EB
:1043F0005F24F0906024C114D104E104F10489F435
:104400000E94D520C0905D24D0905E24E0905F246F
:10441000F090602482E0C114D104E104F10409F4B5
:1044200041C04BE050E060E270E0CE0101960E9496
:10443000A66D90E020E038E0F501E20FF11D8081EB
:10444000811519F08A3009F048C0C701B6010E94F1
:10445000BA1F2B013C01812C912C540180915524D1
:104460009091562488169906A104B10408F45EC000
:1044700000E010E0980140E0C701B6010E94DB1F98
:104480006B017C0167EFC6166FEFD606E6066FE09C
:10449000F60608F5C114D104E104F104B1F681E097
:1044A00001C083E08093652480E02B96CDBFDEBF02
:1044B000DF91CF911F910F91FF90EF90DF90CF9000
:1044C000BF90AF909F908F907F906F905F904F9034
:1044D000089586E0E7CF84E0E5CF4FED480F4E35F5
:1044E00058F442ED480F423080F42F5F9B3009F0C2
:1044F000A3CF30936524A0CF8032B9F7FE01319667
:10450000E90FF11D80839F5FF0CFE92FF0E041E0DC
:10451000490F5FE9580F5A3188F7BE016F5F7F4F2F
:10452000E60FF71F80528083942FDFCFC501B401BF
:10453000640D751D861D971D0E94B532E1E8F4E2F9
:1045400040E050E080915724909158244817590733
:1045500030F0BFEF8B1A9B0AAB0ABB0A7FCF80817A
:10456000811509F4B6CF853E09F43FC083858031BB
:1045700011F08032D1F5CE0101968F019F01255FA8
:104580003F4FD8017D918D01DC016D91CD017613F6
:104590002CC002171307A9F780916D2490916E2407
:1045A000A0916F24B09170248093692490936A2421
:1045B000A0936B24B0936C2484899589A0E0B0E02B
:1045C000DC0199278827428D538D60E070E0842BB1
:1045D000952BA62BB72B80936D2490936E24A093DC
:1045E0006F24B093702481E060CF405E5F4FB0963F
:1045F000A9CF2F923F924F925F926F927F928F92AC
:104600009F92AF92BF92CF92DF92EF92FF920F9361
:104610001F93CF93DF93EC011B018091992687FDB7
:1046200004C083E08093652402C02097A1F480E059
:10463000DF91CF911F910F91FF90EF90DF90CF907E
:10464000BF90AF909F908F907F906F905F904F90B2
:104650003F902F900895C0906D24D0906E24E090EC
:104660006F24F0907024C114D104E104F10431F5F9
:10467000C0905D24D0905E24E0905F24F090602490
:10468000C114D104E104F104C9F40E94D520C09002
:104690005D24D0905E24E0905F24F090602482E05E
:1046A000C114D104E104F10409F4BCCFC0926D241B
:1046B000D0926E24E0926F24F0927024C701B6016C
:1046C0000E94BA1F4B015C01412C512C3201809198
:1046D0005524909156244816590661047104A0F09F
:1046E00000E010E0980140E0C701B6010E94DB1F26
:1046F0006B017C0187EFC8168FEFD806E8068FE0C4
:10470000F806B0F184E08ECFC301B201680D791DC7
:104710008A1D9B1D0E94B532A1E8B4E280E090E0C2
:1047200020915724309158248217930730F08FEF4F
:10473000481A580A680A780ACACFFD012C91211537
:1047400099F0253E41F01B962C911B972F3019F0C4
:10475000283009F021979096209741F480E2D1010A
:1047600001900D928A95E1F781E062CF8096D8CFD3
:10477000C114D104E104F10409F0A0CF81E052CFCB
:104780002F923F924F925F926F927F928F929F9261
:10479000AF92BF92CF92DF92EF92FF920F931F934F
:1047A000CF93DF93382E292E8091992687FF48C01A
:1047B000C0905D24D0905E24E0905F24F09060244F
:1047C000C114D104E104F10481F40E94D520C09009
:1047D0005D24D0905E24E0905F24F090602482E01D
:1047E000C114D104E104F10461F1C701B6010E94D2
:1047F000BA1F4B015C01412C512C32018091552490
:10480000909156244816590661047104A0F100E005
:1048100010E0980140E0C701B6010E94DB1F6B0168
:104820007C0187EFC8168FEFD806E8068FE0F80600
:1048300000F5C114D104E104F104B9F681E001C02E
:1048400083E08093652480E0DF91CF911F910F91E9
:10485000FF90EF90DF90CF90BF90AF909F908F90A0
:104860007F906F905F904F903F902F90089587E0DA
:10487000E8CF84E0E6CFC301B201680D791D8A1D3F
:104880009B1D0E94B532C1E8D4E280E090E0209107
:104890005724309158248217930730F08FEF481A2D
:1048A000580A680A780AAACFFE0128812115F9F270
:1048B000A096DE0155972C91283049F48BE0A32D6A
:1048C000B22D01900D928A95E1F781E0BDCF8096DF
:1048D000DECF2F923F924F925F926F927F928F9294
:1048E0009F92AF92BF92CF92DF92EF92FF920F937F
:1048F0001F93CF93DF93CDB7DEB72897CDBFDEBF31
:104900005C01C0905D24D0905E24E0905F24F09024
:10491000602448E050E060E270E0CE0101960E9421
:10492000A66D20E090E0F501E90FF11D8081811571
:1049300011F08A3039F5C701B6010E94BA1F4B0148
:104940005C01412C512C32018091552490915624C8
:10495000481659066104710450F100E010E0980116
:1049600040E0C701B6010E94DB1F6B017C01D7014B
:10497000C6010197A109B109863F9F4FAF4FBF40C4
:10498000D0F231C03FED380F3E3578F432ED380FBC
:10499000323058F03FE9380F3A3108F48052FE01C6
:1049A0003196E20FF11D80832F5F9F5FBCCFC30163
:1049B000B201680D791D8A1D9B1D0E94B532E1E888
:1049C000F4E280E090E0209157243091582482173F
:1049D000930730F0BFEF4B1A5B0A6B0A7B0AB4CF28
:1049E0002081211119C060E070E0CB012896CDBF75
:1049F000DEBFDF91CF911F910F91FF90EF90DF907D
:104A0000CF90BF90AF909F908F907F906F905F906E
:104A10004F903F902F900895253E59F123852031E6
:104A200011F0203231F5AE014F5F5F4F1F01BF0122
:104A3000685F7F4FD1011D911D01DA012D91AD01FC
:104A4000022E000C330B1217130699F426163706A4
:104A500089F76489758980E090E0CB017727662724
:104A6000C28CD38CE12CF12C6C297D298E299F29B5
:104A7000BDCF8096B096A7CF4F925F926F927F92F4
:104A80008F929F92AF92BF92CF92DF92EF92FF925E
:104A90000F931F93CF93DF935C01EB011882198270
:104AA0008091992687FF93C0C0906D24D0906E248A
:104AB000E0906F24F0907024C114D104E104F1045B
:104AC00069F5C0905D24D0905E24E0905F24F09062
:104AD0006024C114D104E104F10401F50E94D52041
:104AE000C0905D24D0905E24E0905F24F09060241C
:104AF000A114B10429F0C5010E9469246B017C0155
:104B0000C114D104E104F10409F463C0C0926D241E
:104B1000D0926E24E0926F24F0927024C701B60107
:104B20000E94BA1F4B015C01412C512C3201809133
:104B30005524909156244816590661047104D8F002
:104B400000E010E0980140E0C701B6010E94DB1FC1
:104B50006B017C0187EFC8168FEFD806E8068FE05F
:104B6000F80608F04DC0C114D104E104F104B1F617
:104B700091E080E032C0C301B201680D791D8A1D49
:104B80009B1D0E94B532E1E8F4E280E090E02091C4
:104B90005724309158248217930730F08FEF481A2A
:104BA000580A680A780AC3CF20812115A1F0253E52
:104BB00059F023852F3041F0283031F02881398198
:104BC0002F5F3F4F288339838096B096E0CF93E0E4
:104BD000D0CF92E0CECF9AEA81E090936524DF9126
:104BE000CF911F910F91FF90EF90DF90CF90BF90EA
:104BF000AF909F908F907F906F905F904F900895AF
:104C000094E0B7CF1092792410927A2410927B24EA
:104C100010927C241092752410927624109277249E
:104C2000109278241092712410927224109273249E
:104C30001092742410927D2410927E2410927F246E
:104C40001092802410926724109268241092662497
:104C50000895CF93C82F60913A2470913B2480919E
:104C60003C2490913D240E940A4C41E067E070EEA4
:104C70008C2F0E949F4C80913C2490913D2406965D
:104C800080933C2490933D248A3D914068F080912C
:104C90003A2490913B2410923C2410923D24089693
:104CA00080933A2490933B2480913A2490913B2422
:104CB0008733914040F010923C2410923D24109292
:104CC0003A2410923B248FEF91EE24E081509040E3
:104CD0002040E1F700C00000CF910895CF93DF930B
:104CE000AC019B01682FFC0180E091919E3251F054
:104CF0008F5F8C30D1F785E08093652480E0DF9171
:104D0000CF910895D901E901FA018930A0F79E2FCA
:104D1000961B981710F1682F70E090E2683001F54B
:104D20008F5FF9013896255F3F4FEA01C80FD11D0B
:104D300098819115E1F08F5F9193E217F307A9F73E
:104D40008D919FE9980F9A3118F4FD01805282935A
:104D5000A217B307A9F781E0D2CF91919993D7CF4A
:104D6000F901E60FF71F90836F5F7F4FD7CF90E277
:104D7000E3CF2F923F924F925F926F927F928F92EA
:104D80009F92AF92BF92CF92DF92EF92FF920F93DA
:104D90001F93CF93DF93CDB7DEB72C97CDBFDEBF88
:104DA000782EB92E362E272E8091992687FD1BC08E
:104DB00083E0809365241C868C852C96CDBFDEBF56
:104DC000DF91CF911F910F91FF90EF90DF90CF90E7
:104DD000BF90AF909F908F907F906F905F904F901B
:104DE0003F902F900895C0906D24D0906E24E09055
:104DF0006F24F0907024C114D104E104F10431F562
:104E0000C0905D24D0905E24E0905F24F0906024F8
:104E1000C114D104E104F104C9F40E94D520C0906A
:104E20005D24D0905E24E0905F24F0906024C11453
:104E3000D104E104F10411F482E0BBCFC0926D24EF
:104E4000D0926E24E0926F24F0927024BE016F5FC6
:104E50007F4F872D9B2D0E946E268C87811509F42C
:104E6000AACFC701B6010E94BA1F2B013C01812CB9
:104E7000912C5401809155249091562488169906BE
:104E8000A104B104A8F000E010E0980140E0C701DF
:104E9000B6010E94DB1F6B017C0187EFC8168FEF04
:104EA000D806E8068FE0F80608F460C084E081CFF9
:104EB000C501B401640D751D861D971D0E94B53294
:104EC00049815A81E1E8F4E280E090E020915724A2
:104ED000309158248217930730F08FEF881A980A80
:104EE000A80AB80AC7CF2081211102C089E061CF8A
:104EF000338561EF630F6230B0F13830A1F12413D4
:104F000032C0218125132FC032812B8132132BC057
:104F100033812C81321327C034812D81321323C079
:104F200035812E8132131FC036812F8132131BC071
:104F300037812885321317C030852985321313C075
:104F400031852A8532130FC032852B8532130BC071
:104F500080E2A32DB22D01900D928A95E1F78AEAA5
:104F60008093652429CF8096B096B0CFC114D10428
:104F7000E104F10409F075CF81E01BCF0F931F937B
:104F8000CF93DF93CDB7DEB7A097CDBFDEBF109232
:104F9000792410927A2410927B2410927C2410920F
:104FA000752410927624109277241092782410920F
:104FB000712410927224109273241092742410920F
:104FC0007D2410927E2410927F2410928024BE01B2
:104FD0006F5F7F4F0E94B9268115C9F14D895E89A7
:104FE00060E070E0BA01552744270B8D1C8D20E04E
:104FF00030E0402B512B622B732B4093792450933C
:105000007A2460937B2470937C24109275241092F0
:10501000762410927724109278244D8D5E8D6F8DBA
:1050200078A14093712450937224609373247093F9
:10503000742410927D2410927E2410927F2410926A
:105040008024109267241092682410926624A096FF
:10505000CDBFDEBFDF91CF911F910F910895BF9219
:10506000CF92DF92EF92FF920F931F93CF93DF9334
:105070006B0140917124509172246091732470915E
:105080007424452B462B472B09F45AC0D0E0E12C61
:10509000F12C8AEAB82E8091752490917624A09103
:1050A0007724B0917824892B8A2B8B2B91F46091F3
:1050B000792470917A2480917B2490917C240E94A1
:1050C000BA1F60937524709376248093772490930D
:1050D0007824C09166248091552490915624C81755
:1050E0001906A0F16091792470917A2480917B2433
:1050F00090917C2400E010E0980140E00E94DB1FCA
:10510000462F572FBC014093792450937A24609303
:105110007B2470937C241092752410927624109234
:1051200077241092782410926724109268241092A9
:105130006624452B462B472B09F0ADCF81E0B7C045
:105140000E94BE278111A2CFD0E084C06091752457
:105150007091762480917724909178246C0F711D42
:10516000811D911D0E94B532809167249091682421
:10517000811522E0920730F0109267241092682483
:10518000CF5FA9CFFC01EF57FB4DD11109C02081A2
:10519000D601AE0DBF1D2C9397012F5F3F4F7901B4
:1051A00020812A3031F020812D3019F02081211109
:1051B00009C0D11106C0D601AE0DBF1D1C92B09220
:1051C0006524D1E020812A3009F44FC020812D30A0
:1051D00009F44BC02081211509F447C0D11509F409
:1051E00044C09C012F5F3F4F8F3F914019F4CF5F28
:1051F00020E030E02093672430936824C093662435
:105200008091552490915624C817190600F1609199
:10521000792470917A2480917B2490917C2400E001
:1052200010E0980140E00E94DB1F609379247093A6
:105230007A2480937B2490937C241092752410927E
:1052400076241092772410927824109266248AEAA9
:10525000809365248D2FDF91CF911F910F91FF9047
:10526000EF90DF90CF90BF90089540917D245091B2
:105270007E2460917F24709180244F5F5F4F6F4F39
:105280007F4F40937D2450937E2460937F247093BE
:105290008024009171241091722420917324309104
:1052A0007424401751076207730730F08CE0809335
:1052B00065240E94022648CF01965ACFAF92BF9232
:1052C000CF92DF92EF92FF920F931F93CF936B01D8
:1052D0005A0140917124509172246091732470910D
:1052E0007424452B462B472B09F457C0E12CF12C95
:1052F0008091752490917624A0917724B0917824A0
:10530000892B8A2B8B2B91F46091792470917A24CC
:1053100080917B2490917C240E94BA1F6093752415
:10532000709376248093772490937824C091662498
:105330008091552490915624C8171906A0F16091C8
:10534000792470917A2480917B2490917C2400E0D0
:1053500010E0980140E00E94DB1F462F572FBC0150
:105360004093792450937A2460937B2470937C2417
:10537000109275241092762410927724109278243B
:10538000109267241092682410926624452B462BB5
:10539000472B09F0ADCF81E09AC00E94BE27811152
:1053A000A5CF80E07CC060917524709176248091B7
:1053B0007724909178246C0F711D811D911D0E949E
:1053C000B532809166248C130DC080916724909132
:1053D0006824F601EE0DFF1D811522E0920728F0EA
:1053E000CF5FA6CF80E090E0F4CF2FEFE21AF20A71
:1053F000DC01AF57BB4D2C91219340917D245091FE
:105400007E2460917F24709180244F5F5F4F6F4FA7
:105410007F4F40937D2450937E2460937F2470932C
:105420008024EA14FB0409F044C09C012F5F3F4F25
:105430008F3F914019F4CF5F20E030E02093672444
:1054400030936824C093662480915524909156240B
:10545000C817190600F16091792470917A2480911F
:105460007B2490917C2400E010E0980140E00E94B1
:10547000DB1F6093792470937A2480937B2490932C
:105480007C24109275241092762410927724109226
:105490007824109266248AEA8093652481E0CF9173
:1054A0001F910F91FF90EF90DF90CF90BF90AF9042
:1054B00008950091712410917224209173243091E9
:1054C0007424401751076207730730F08BEB809309
:1054D00065240E94022665CF01967ECF2F923F92CF
:1054E0004F925F926F927F928F929F92AF92BF92F4
:1054F000CF92DF92EF92FF920F931F93CF93DF93A0
:10550000CDB7DEB7A997CDBFDEBF1B014A01BE01F3
:105510006F5F7F4F0E94B926B82E811509F48CC0A9
:10552000CD88DE88E12CF12C7601DD24CC248B8D16
:105530009C8DA0E0B0E0C82AD92AEA2AFB2A0D8D6A
:105540001E8D2F8D38A10DA31EA32FA338A7A12C2C
:10555000412C512C3201C701B6010E94BA1F69A328
:105560007AA38BA39CA319A68091552490915624CD
:1055700019A51817190688F000E010E0980140E01E
:10558000C701B6010E94DB1F6B017C01C114D1046D
:10559000E104F10401F781E04DC069A17AA18BA17A
:1055A0009CA119A5610F711D811D911D0E94B5322D
:1055B000D10180E090E0FC01EF57FB4D2081811488
:1055C0009104E1F52C9320812A30F1F41C928AEAAF
:1055D000809365248B2DA996CDBFDEBFDF91CF913F
:1055E0001F910F91FF90EF90DF90CF90BF90AF9001
:1055F0009F908F907F906F905F904F903F902F90F3
:1056000008952A013B01D7CF20812115F9F220818D
:105610002D30E1F2B301A2014F5F5F4F6F4F7F4F1B
:105620000DA11EA12FA138A54016510662067306D2
:10563000F8F08CE080936524B12CCCCF2A30B1F007
:105640002081211599F0308121E03D3009F020E0E2
:10565000A22A20812A30F1F220812D30D9F2208136
:105660002115C1F28A189108A12CD4CFAB2CF1CF0F
:1056700001961196811512E0910719F609A50F5FA1
:1056800009A72A013B0170CF8F929F92AF92BF92E0
:10569000CF92DF92EF92FF9260786B017C01809154
:1056A000592490915A24A0915B24B0915C24C8168F
:1056B000D906EA06FB0620F060E070E0CB013DC0B1
:1056C0008091532490915424209157243091582450
:1056D00080904F2490905024A0905124B090522458
:1056E000880E991EA11CB11C40E050E0C701B60114
:1056F000E2E0660F771F881F991FEA95D1F70E9495
:105700002B6CC501B401620F731F841F951F0E948B
:10571000B532E1E8F4E280E04191519161917191FB
:105720007F70452B462B472B89F4A7019601280F44
:10573000311D411D511DCA01B901FF90EF90DF904D
:10574000CF90BF90AF909F908F9008958F5F8038DB
:1057500019F730E8C30ED11CE11CF11CA0CF4F9209
:105760005F926F927F92AF92BF92CF92DF92EF9251
:10577000FF920F931F93CF93DF93CDB7DEB763975D
:10578000CDBFDEBF6B017C0123E1E6E1F3E2CE0198
:105790000196DC0101900D922A95E1F71CE0B82EEC
:1057A000092F8CE2A82E9AE0492E512C612C712CE5
:1057B000153011F0193029F4FE01E10FF11DA0821E
:1057C0001150C701B601A30192010E942B6CFE018A
:1057D000E10FF11D606360838AE0C816D104E10423
:1057E000F10410F01A95B1F48B2D902F0E94AE1F8A
:1057F0006396CDBFDEBFDF91CF911F910F91FF90D8
:10580000EF90DF90CF90BF90AF907F906F905F90C0
:105810004F90089569017A01CBCF4F925F926F92BA
:105820007F928F929F92AF92BF92CF92DF92EF9230
:10583000FF92CF93DF9300D00F92CDB7DEB72091C8
:10584000552430915624C0905924D0905A24E09089
:105850005B24F0905C24A0915724B09158240E94BE
:105860005C6C9B01AC01C701B6010E94076C6983A7
:105870007A838B839C8389E293E20E94AE1F6981C5
:105880007A818B819C810E94AF2B89E790E20E94F4
:10589000AE1F20E030E0A90160E081E00E945020CE
:1058A0006B017C018091592490915A24A0915B2432
:1058B000B0915C248C159D05AE05BF0508F076C03F
:1058C00010923E2480905D2490905E24A0905F24EE
:1058D000B0906024D501C40122E0880F991FAA1F4F
:1058E000BB1F2A95D1F789839A83AB83BC83812C14
:1058F000912C5401C12CD12C76018091532490918C
:105900005424209157243091582440904F24509093
:1059100050246090512470905224480E591E611CEE
:10592000711C40E050E069817A818B819C810E94EA
:105930002B6CC301B201620F731F841F951F0E945D
:10594000B532E1E8F4E281919191A191B191BF70FA
:10595000892B8A2B8B2B29F49FEFC91AD90AE90AC4
:10596000F90AAFEF8A1A9A0AAA0ABA0A8091592448
:1059700090915A24A0915B24B0915C240296A11DC1
:10598000B11D88159905AA05BB0581F0B6E2E1387D
:10599000FB07C9F689819A81AB81BC819E5FAF4FBD
:1059A000BF4F89839A83AB83BC83A7CF80913E246A
:1059B000811106C0A701960161E081E00E9450209C
:1059C00081E080933E242091552430915624A0916B
:1059D0005724B09158240E945C6C9B01AC01C70114
:1059E000B6010E94076C69837A838B839C8389E369
:1059F00093E20E94AE1F69817A818B819C810E9413
:105A0000AF2B89E790E22496CDBFDEBFDF91CF9127
:105A1000FF90EF90DF90CF90BF90AF909F908F90CE
:105A20007F906F905F904F900C94AE1FCF92DF925B
:105A3000EF92FF920F931F93CF93C82F8A019B0180
:105A4000B901A80199E076956795579547959A957C
:105A5000D1F7117022273327012B022B032B21F0C2
:105A60004F5F5F4F6F4F7F4F6A017B0183E0F6947A
:105A7000E794D794C7948A95D1F74770552766273E
:105A80007727452B462B472B29F08FEFC81AD80ACA
:105A9000E80AF80A80913E24811509F120E030E0FF
:105AA000A90160E081E00E9450208B019C01A901C6
:105AB0009801C1110FC02C0D3D1D4E1D5F1D61E0F1
:105AC00081E0CF911F910F91FF90EF90DF90CF90E9
:105AD0000C9450202C193D094E095F09F0CFCF914D
